:1000000036C1000065C1000063C1000061C100008D
:100010005FC100005DC100005BC1000059C100006C
:1000200057C1000055C1000053C1000051C100007C
:100030004FC100004DC100004BC1000049C100008C
:100040000C949C090C94B90A43C1000041C1000002
:100050000C94CC0A3DC100003BC1000095C60000D5
:1000600037C10000ECC40000C1C4000031C1000071
:100070002FC100002DC100002BC1000029C10000CC
:1000800027C1000025C1000023C1000021C10000DC
:100090001FC100001DC100001BC1000019C10000EC
:1000A00017C100000C9455080C94720911C100008E
:1000B0000FC100000C948509B1C60000CCC7000038
:1000C00007C1000005C10000D9C7000001C1000040
:1000D000FFC00000FDC00000FBC00000F9C0000030
:1000E000F7C00000B802BC02C002C402C802CC02C1
:1000F000D00202040904100417041E043604250467
:1001000036042C048405870576057A057E05BE0530
:100110008B058F05950599059D05A305A705AB05DD
:10012000BE05B105B505B9054E414E494E49545974
:10013000494E46CDCCCC3D0AD7233C17B7D13877B2
:10014000CC2B329595E6241FB14F0A0000204100C8
:1001500000C84200401C4620BCBE4CCA1B0E5AAE12
:10016000C59D7400002100240027002A002D0030C6
:1001700000330001010000040107010A0100002210
:1001800000250028002B002E003100340002010061
:1001900000050108010B010505050507050808080C
:1001A00008020202020A0A08080404040401010108
:1001B0000101010101030303030303030304070710
:1001C000070C0C0C0C0C0C0C0C02020202060606AE
:1001D00006060606060B0B0B0B0B0B0B0B01021096
:1001E0002020080810204010204080020102010851
:1001F0000402010102040810204080804020100801
:100200000402018004020180402010080402010859
:1002100004020101020408102040800102040810B9
:1002200020408000000A0B02090C0D0E0807030491
:1002300001000000000000000000000000000000BD
:10024000000000000000000000000000000000129C
:10025000111000000000000000000000000000007D
:1002600000000000000000000000A415A5101124EB
:100270001FBECFEFD1E2DEBFCDBF00E00CBF24E058
:10028000A4E8B2E001C01D92A932B207E1F712E082
:10029000A0E0B2E0EAEFFAE300E00BBF02C0079093
:1002A0000D92A438B107D9F711E0C6E3D1E000E020
:1002B00006C021970109802FFE010E942B1BC53328
:1002C000D10780E00807A9F70E94BA100C946C1DB2
:1002D00097CE0895CF92DF92EF92FF920F931F93E4
:1002E000CF93DF936C017A018B01C0E0D0E0CE1593
:1002F000DF0589F0D8016D918D01D601ED91FC915A
:100300000190F081E02DC6011995892B11F47E0131
:1003100002C02196ECCFC701DF91CF911F910F91C1
:10032000FF90EF90DF90CF900895089580E090E0E7
:100330000895FC01538D448D252F30E0842F90E0EB
:10034000821B930B541710F0CF96089501970895D0
:10035000FC01918D828D981761F0828DDF01A80FCD
:10036000B11D5D968C91928D9F5F9F73928F90E0EF
:1003700008958FEF9FEF0895FC01918D828D98175E
:1003800031F0828DE80FF11D858D90E008958FEF9B
:100390009FEF0895FC01918D228D892F90E0805C64
:1003A0009F4F821B91098F739927089580E093E0F6
:1003B000F1DF21E0892B09F420E0822F0895FC0170
:1003C000848DDF01A80FB11DA35ABF4F2C91848DDE
:1003D00090E001968F739927848FA689B7892C9313
:1003E000A089B1898C9180648C93938D848D9813AE
:1003F00006C00288F389E02D80818F7D8083089577
:10040000EF92FF920F931F93CF93DF93EC0181E064
:10041000888F9B8D8C8D981305C0E889F989808120
:1004200085FD23C0F62E0B8D10E00F5F1F4F0F735D
:100430001127E02E8C8DE8120BC00FB607FCFACF07
:10044000E889F989808185FFF5CFCE01B8DFF2CF49
:100450008B8DFE01E80FF11DE35AFF4FF0820B8FE9
:10046000EA89FB898081806207C0EE89FF89608309
:10047000E889F98980818064808381E090E0DF9160
:10048000CF911F910F91FF90EF900895CF93DF933D
:10049000EC01888D8823C1F0EA89FB89808185FD84
:1004A00005C0A889B9898C9186FD0EC00FB607FCDE
:1004B000F5CF808185FFF2CFA889B9898C9185FF1E
:1004C000EDCFCE017CDFE8CFDF91CF91089580E0C2
:1004D00090E0892B19F06ADF811125C080E090E05F
:1004E000892B41F080E090E0892B21F00E940000F0
:1004F00081111CC080E090E0892B41F080E090E009
:10050000892B21F00E940000811113C080E090E04F
:10051000892BA1F080E090E0892B81F00E940000FF
:1005200081110AC008950E940000D8CF0E940000E7
:10053000E1CF0E940000EACF0C9400000895CF9311
:10054000DF93DC014770552766277727FA0131973B
:10055000CD91DC911197E730F10530F48827EE5802
:10056000FF4F8F4F0C942B1BEC81FD8161E01BC072
:10057000EC81FD8165E017C0EC81FD8164E013C072
:10058000EC81FD8166E00FC0EC81FD8162E00BC073
:10059000EC81FD816AE007C0EC81FD8168E003C069
:1005A000EC81FD8169E0CD01DF91CF911994CF936A
:1005B000DF93EC01CB01BA0126E030E040E050E0EF
:1005C0000E940F1B623071058105910559F18CF471
:1005D0006115710581059105F1F0613071058105A5
:1005E0009105C1F5E881F9810480F581E02D65E090
:1005F0002DC0643071058105910511F1D4F065308D
:1006000071058105910531F5E881F9810480F58155
:10061000E02D66E01BC0E881F9810480F581E02DC2
:1006200064E014C0E881F9810480F581E02D61E087
:100630000DC0E881F9810480F581E02D63E006C0FA
:10064000E881F9810480F581E02D62E0CE01DF913F
:10065000CF911994DF91CF91089543705527662764
:100660007727DC01ED91FC910480F581E02D42308B
:1006700051056105710571F0433051056105710542
:1006800059F0413051056105710511F065E005C073
:1006900066E003C06AE001C069E01994CF93DF937C
:1006A000EC01CB01BA0123E030E040E050E00E94D1
:1006B0000F1B613071058105910581F06230710574
:1006C0008105910591F0672B682B692BC1F4E881B6
:1006D000F9810480F581E02D64E00DC0E881F981A5
:1006E0000480F581E02D61E006C0E881F981048095
:1006F000F581E02D62E0CE01DF91CF911994DF9179
:10070000CF9108954370552766277727DC01ED9137
:10071000FC910480F581E02D4230510561057105A1
:1007200071F0433051056105710559F041305105B3
:100730006105710511F062E005C063E003C061E08E
:1007400001C060E01994CF93DF93EC01E881F98157
:100750000480F581E02D8A81811102C060E001C032
:1007600062E0CE011995E881F9810480F581E02DE0
:100770008A81811102C061E001C063E0CE01199558
:100780008CA59DA58230910538F0880F991F880FA0
:10079000991F05970197F1F7E881F9810480F581A8
:1007A000E02D8A81811102C060E001C062E0CE01CB
:1007B000DF91CF911994CF93DF93EC0120E030E0EB
:1007C000A9016C897D898E899F890E948E1A1816CD
:1007D0001CF4E8A9F9A902C0EAA9FBA9DF91CF910D
:1007E00019940F931F93DC0113960C91139710E04B
:1007F00009301105D8F5F8018827E758FF4F8F4FCA
:100800000C942B1BED91FC9111970084F185E02D48
:1008100029C0ED91FC9111970284F385E02D22C04F
:10082000ED91FC9111970484F585E02D1BC0ED91AD
:10083000FC9111970684F785E02D14C0ED91FC9191
:1008400011970088F189E02D0DC0ED91FC91119771
:100850000288F389E02D06C0ED91FC911197048880
:10086000F589E02DCD011F910F9119941F910F91E2
:100870000895FC0124813581232B31F421E0611599
:100880007105A1F0FB0108C0FC0180819181611517
:10089000710531F421E0FC018081882339F005C025
:1008A0000E945C1D21E0892B09F020E0822F089531
:1008B0000F931F93CF93DF938C01EB01FC01808199
:1008C00091810097B1F0688179816115710579F0A6
:1008D000428153812C813D814217530740F00E9491
:1008E000651D8C819D81F8019583848313C00E94CE
:1008F000C81B88819981F801918380838A819B81BB
:10090000938382838C819D8195838483198218824D
:100910001B821A821D821C82DF91CF911F910F9141
:1009200008950F931F93CF93DF93EC0188819981F2
:10093000009729F02A813B812617370788F48B011D
:100940006F5F7F4F0E94601C009761F099838883DE
:100950001B830A832C813D81232B11F4FC0110821F
:1009600081E001C080E0DF91CF911F910F91089548
:10097000EF92FF920F931F93CF93DF93EC017B01D4
:100980008A01BA01CEDF2881398181110DC021157C
:10099000310519F0C9010E94C81B198218821D82F5
:1009A0001C821B821A8206C01D830C83B701C901F9
:1009B0000E94651DCE01DF91CF911F910F91FF9095
:1009C000EF900895FC011182108213821282158229
:1009D00014826115710549F0FB0101900020E9F7CF
:1009E0003197AF01461B570BC3CF08951F920F924B
:1009F0000FB60F9211240BB60F922F933F934F9384
:100A00005F936F937F938F939F93AF93BF93EF9376
:100A1000FF9380E093E0D3DCFF91EF91BF91AF9122
:100A20009F918F917F916F915F914F913F912F9106
:100A30000F900BBE0F900FBE0F901F9018951F9236
:100A40000F920FB60F9211240BB60F922F938F9324
:100A50009F93EF93FF93E0911003F0911103808136
:100A6000E0911603F091170382FD12C090818091EE
:100A700019038F5F8F7320911A03821751F0E09151
:100A80001903F0E0E050FD4F958F8093190301C0EA
:100A90008081FF91EF919F918F912F910F900BBECD
:100AA0000F900FBE0F901F901895362F90E0FC010D
:100AB000ED5DFD4F4491FC01E352FE4F2491FC019A
:100AC000E956FE4F9491992309F46BC0442309F42D
:100AD00055C050E0FA013197E231F10508F04EC0FF
:100AE0008827EE57FF4F8F4F0C942B1B809180006F
:100AF0008F7707C0809180008F7D03C08091800038
:100B0000877F809380003AC084B58F7702C084B518
:100B10008F7D84BD33C08091B0008F7703C08091FA
:100B2000B0008F7D8093B00029C0809190008F77B6
:100B300007C0809190008F7D03C080919000877FD7
:100B4000809390001BC08091A0008F7707C0809198
:100B5000A0008F7D03C08091A000877F8093A000BC
:100B60000DC0809120018F7707C0809120018F7D7B
:100B700003C080912001877F80932001E92FF0E05E
:100B8000EE0FFF1FE358FE4FA591B4918FB7F89475
:100B9000EC91311103C020952E2301C02E2B2C93F4
:100BA0008FBF0895CF92DF92EF92FF920F931F9322
:100BB000CF93DF93FC012381243041F0283031F0C2
:100BC000233031F0263021F012E003C014E001C0E0
:100BD00013E0EC012896E12CF12CC62ED12C01E07B
:100BE000C6010E2C02C0959587950A94E2F768819C
:100BF00080FD6027FE013497808157DFFFEFEF1AF9
:100C0000FF0A2196E11660F3DF91CF911F910F91BA
:100C1000FF90EF90DF90CF900895CF93DF9390E017
:100C2000FC01E352FE4F2491FC01E956FE4F8491F2
:100C3000882361F190E0880F991FFC01ED59FE4F68
:100C4000C591D491FC01E358FE4FA591B491611177
:100C500009C09FB7F8948881209582238883EC91FE
:100C60002E230BC0623061F49FB7F8943881822F35
:100C7000809583238883EC912E2B2C939FBF06C0F5
:100C80008FB7F894E8812E2B28838FBFDF91CF9107
:100C90000895CF93DF93FC012381222329F1EC01F6
:100CA00061E08481BADF61E08D81B7DF8B818430C0
:100CB00011F0883031F461E08E81AFDF61E08F8127
:100CC00006C0833011F0863019F461E08E81A5DF13
:100CD0008FA58F3F49F061E0A0DF6EA581E0682716
:100CE0008FA5DF91CF91E1CEDF91CF910895CF9382
:100CF000DF93FC012381222399F0EC010190F08124
:100D0000E02D0480F581E02D60E019958FA58F3FDF
:100D100039F061E082DF6EA58FA5DF91CF91C5CE5E
:100D2000DF91CF9108953FB7F8948091B6029091EA
:100D3000B702A091B802B091B90226B5A89B05C030
:100D40002F3F19F00196A11DB11D3FBFBA2FA92F4A
:100D5000982F8827820F911DA11DB11DBC01CD01C7
:100D600042E0660F771F881F991F4A95D1F70895B3
:100D70002FB7F8946091B2027091B3028091B402DF
:100D80009091B5022FBF08951F920F920FB60F9248
:100D900011242F933F938F939F93AF93BF93809191
:100DA000B2029091B302A091B402B091B502309119
:100DB000B10223E0230F2D3720F40196A11DB11DB0
:100DC00005C026E8230F0296A11DB11D2093B10294
:100DD0008093B2029093B302A093B402B093B50291
:100DE0008091B6029091B702A091B802B091B90279
:100DF0000196A11DB11D8093B6029093B702A093F6
:100E0000B802B093B902BF91AF919F918F913F917A
:100E10002F910F900FBE0F901F9018951F920F9259
:100E20000FB60F9211240BB60F92CF92DF92EF9272
:100E3000FF920F931F932F933F934F935F936F9363
:100E40007F938F939F93AF93BF93EF93FF932091E3
:100E5000260130912701C9013091210120E4232787
:100E600020932101D59A2091F3023091F402D90107
:100E7000D09B05C08F3F0FE7900708F4C1C02091B9
:100E8000210126FFADC02091F9023091FA0221150F
:100E9000310509F44FC02130310509F054C00091EB
:100EA000AD021091AE022091AF023091B00240919C
:100EB000F5025091F6026091F7027091F802480F26
:100EC000591F6A1F7B1F401B510B620B730B409312
:100ED000F5025093F6026093F7027093F802C09007
:100EE000FC02D090FD02E090FE02F090FF024091E3
:100EF000C2025091C3026091C4027091C5028C017C
:100F00009D01041B150B260B370BC901B8010E946C
:100F10005F189B01AC01C701B6010E94F5190E9440
:100F2000621A6093A9027093AA028093AB02909315
:100F3000AC024CC08093C2029093C302A093C4023F
:100F4000B093C50243C00091AD021091AE02209152
:100F5000AF023091B0024091F5025091F6026091DB
:100F6000F7027091F802480F591F6A1F7B1F401B40
:100F7000510B620B730B4093F5025093F602609392
:100F8000F7027093F8022091F9023091FA0227706B
:100F90003327232BD9F40091C2021091C302209170
:100FA000C4023091C5024091A9025091AA026091F9
:100FB000AB027091AC026C017D01C01AD10AE20A49
:100FC000F30AC416D506E606F706E8F48091F9029E
:100FD0009091FA0201969093FA028093F90222C04E
:100FE0009C01205C33463093290120932801809393
:100FF000AD029093AE02A093AF02B093B00212C0C4
:10100000D90111963CCF8093C6029093C702A0935A
:10101000C802B093C9021092730083E28ABB81E0D8
:101020008093FB02FF91EF91BF91AF919F918F91C0
:101030007F916F915F914F913F912F911F910F91F0
:10104000FF90EF90DF90CF900F900BBE0F900FBEF0
:101050000F901F9018951F920F920FB60F921124A8
:101060008F931092730083E28ABB82E08093FB022D
:101070008F910F900FBE0F901F9018951F920F9297
:101080000FB60F9211248F939F938091F30290914A
:10109000F40201969093F4028093F3029F918F9152
:1010A0000F900FBE0F901F9018951F920F920FB6C2
:1010B0000F9211240BB60F92CF92DF92EF92FF9214
:1010C0000F931F932F933F934F935F936F937F9350
:1010D0008F939F93AF93BF93EF93FF932091A600BD
:1010E0003091A700C9013091A10020E4232720936B
:1010F000A100CD9A2091E6023091E702D901C89B68
:1011000005C08F3F0FE7900708F4C1C02091A100F0
:1011100026FFADC02091EC023091ED022115310582
:1011200009F44FC02130310509F054C00091A502E7
:101130001091A6022091A7023091A8024091E802E6
:101140005091E9026091EA027091EB02480F591F39
:101150006A1F7B1F401B510B620B730B4093E8020D
:101160005093E9026093EA027093EB02C090EF02A1
:10117000D090F002E090F102F090F2024091BA02B9
:101180005091BB026091BC027091BD028C019D0127
:10119000041B150B260B370BC901B8010E945F1801
:1011A0009B01AC01C701B6010E94F5190E94621AA9
:1011B0006093A1027093A2028093A3029093A40271
:1011C0004CC08093BA029093BB02A093BC02B09330
:1011D000BD0243C00091A5021091A6022091A70272
:1011E0003091A8024091E8025091E9026091EA0230
:1011F0007091EB02480F591F6A1F7B1F401B510B58
:10120000620B730B4093E8025093E9026093EA0289
:101210007093EB022091EC023091ED02277033279E
:10122000232BD9F40091BA021091BB022091BC0289
:101230003091BD024091A1025091A2026091A3029F
:101240007091A4026C017D01C01AD10AE20AF30A6E
:10125000C416D506E606F706E8F48091EC029091F4
:10126000ED0201969093ED028093EC0222C09C0166
:10127000205C33463093A9002093A8008093A502F8
:101280009093A602A093A702B093A80212C0D9011E
:1012900011963CCF8093BE029093BF02A093C002F0
:1012A000B093C1021092720083E289BB81E0809307
:1012B000EE02FF91EF91BF91AF919F918F917F913E
:1012C0006F915F914F913F912F911F910F91FF90DF
:1012D000EF90DF90CF900F900BBE0F900FBE0F904E
:1012E0001F9018951F920F920FB60F9211248F9393
:1012F0001092720083E286BB82E08093EE028F91AF
:101300000F900FBE0F901F9018951F920F920FB65F
:101310000F9211248F939F938091E6029091E702A0
:1013200001969093E7028093E6029F918F910F9030
:101330000FBE0F901F9018951F920F920FB60F922D
:1013400011240BB60F92CF92DF92EF92FF920F9380
:101350001F932F933F934F935F936F937F938F933D
:101360009F93AF93BF93EF93FF93209186003091AB
:101370008700C9013091810020E423272093810058
:10138000B59A20919F023091A002D901B09B05C06F
:101390008F3F0FE7900708F4C1C02091810026FF1E
:1013A000ADC020919D0230919E022115310509F4B6
:1013B0004FC02130310509F054C0009195021091C1
:1013C000960220919702309198024091910250919B
:1013D00092026091930270919402480F591F6A1F04
:1013E0007B1F401B510B620B730B40939102509378
:1013F00092026093930270939402C0908D02D090F9
:101400008E02E0908F02F0909002409199025091EC
:101410009A0260919B0270919C028C019D01041BB9
:10142000150B260B370BC901B8010E945F189B01F1
:10143000AC01C701B6010E94F5190E94621A6093BF
:10144000890270938A0280938B0290938C024CC025
:101450008093990290939A02A0939B02B0939C026E
:1014600043C000919502109196022091970230910D
:101470009802409191025091920260919302709172
:101480009402480F591F6A1F7B1F401B510B620BB0
:10149000730B409391025093920260939302709366
:1014A000940220919D0230919E0227703327232BB6
:1014B000D9F40091990210919A0220919B023091E7
:1014C0009C024091890250918A0260918B02709136
:1014D0008C026C017D01C01AD10AE20AF30AC4161B
:1014E000D506E606F706E8F480919D0290919E02EB
:1014F000019690939E0280939D0222C09C01205CE5
:10150000334630938900209388008093950290930E
:101510009602A0939702B093980212C0D901119637
:101520003CCF8093850290938602A0938702B0936C
:10153000880210926F0083E286BB81E08093840270
:10154000FF91EF91BF91AF919F918F917F916F919B
:101550005F914F913F912F911F910F91FF90EF90CD
:10156000DF90CF900F900BBE0F900FBE0F901F908B
:1015700018951F920F920FB60F9211248F9310920D
:101580006F0083E286BB82E0809384028F910F908C
:101590000FBE0F901F9018951F920F920FB60F92CB
:1015A00011248F939F9380919F029091A0020196A6
:1015B0009093A00280939F029F918F910F900FBEF6
:1015C0000F901F9018952F923F924F925F926F92BB
:1015D0007F928F929F92AF92BF92CF92DF92EF92C3
:1015E000FF920F931F93CF93DF9300D01F92CDB73D
:1015F000DEB71C01FC01C088D188E288F3888485AD
:101600009585A685B785C81AD90AEA0AFB0A6489AE
:101610007589868997899B01AC010E94C0184B018E
:101620005C01F101648D758D868D978D9B01AC01F8
:101630000E9491199B01AC01C501B4010E94F519EA
:101640000E945D1AC114D104E104F104A1F46230D6
:101650007105810591050CF07CC0F10114A215A261
:1016600016A217A2148A158A168A178A14AA15AA0E
:1016700016AA17AAFFC0F10104A915A926A937A91E
:101680001C141D041E041F0404F510161106120676
:1016900013064CF46C157D058E059F055CF52281C3
:1016A000211157C027C0011511052105310509F485
:1016B00050C06C157D058E059F050CF04AC0F101E8
:1016C0008281882309F445C039C01016110612061C
:1016D0001306FCF40027112798010C191D092E0987
:1016E0003F09601771078207930724F4F1012281F3
:1016F000222379F19B01AC0188279927DC01821B09
:10170000930BA40BB50BF10184AB95ABA6ABB7ABB8
:1017100020C00115110521053105D9F0882499242F
:1017200054018C189D08AE08BF08681579058A0514
:101730009B057CF4F101828181110BC030952095CD
:10174000109501951F4F2F4F3F4F04AB15AB26ABA4
:1017500037ABF10184A895A8A6A8B7A88114910475
:10176000A104B10491F480AD91ADA2ADB3AD84AF4D
:1017700095AFA6AFB7AF81E01C141D041E041F0473
:101780000CF080E0F101828341C0F101C4ACD5AC22
:10179000E6ACF7ACA7019601C701B6010E9491190A
:1017A0002B013C01C501B4010E94611820E030E02A
:1017B00040E850E40E94C01820E030E040E85FE3D9
:1017C0000E9491199B01AC01C301B2010E94F5195D
:1017D0009B01AC01C701B6010E9490197B018C01ED
:1017E000F101E05CFF4F60807180C280D380930183
:1017F000A6010E948E1A181614F073018601A70123
:10180000B801F10144AF55AF66AF77AFFFEF8F1A64
:101810009F0AAF0ABF0AF10184AA95AAA6AAB7AA8D
:1018200024AD35AD46AD57ADCA01B90129833A8320
:101830004B835C830E94621AF10164A375A386A3A3
:1018400097A329813A814B815C8160E074E284E74F
:1018500099E40E94F519F101648B758B868B978B47
:101860002281211107C0DC01CB01B058848B958BFC
:10187000A68BB78B0F900F900F900F90DF91CF91A9
:101880001F910F91FF90EF90DF90CF90BF90AF909E
:101890009F908F907F906F905F904F903F902F9090
:1018A00008954F925F926F927F928F929F92AF9224
:1018B000BF92CF92DF92EF92FF92CF93DF93EC0132
:1018C0006A017B0120E030E0A901C701B6010E9456
:1018D0005B1887FF04C0F7FAF094F7F8F0948C8C4B
:1018E0009D8CAE8CBF8CA7019601C501B4010E94EE
:1018F0005B18882309F448C06CA97DA98EA99FA90B
:101900000E9461182B013C01A7019601C501B40199
:101910000E94F5199B01AC01C301B2010E94C018DD
:101920000E945D1A6CAB7DAB8EAB9FABA70196019D
:1019300060E070E080E090E40E94F5190E94961A41
:1019400026E53EE04DE25FE30E94C01820E034E26D
:1019500044E759E40E94C01868AF79AF8AAF9BAFE3
:10196000CC8EDD8EEE8EFF8ECE01DF91CF91FF907B
:10197000EF90DF90CF90BF90AF909F908F907F902F
:101980006F905F904F901FCEDF91CF91FF90EF90BF
:10199000DF90CF90BF90AF909F908F907F906F908F
:1019A0005F904F9008950E94441DFC0180819181B9
:1019B000009711F00C94971660E070E0CB01089549
:1019C000BF92CF92DF92EF92FF920F931F93CF932C
:1019D000DF937C016B01EA0189012417350720F4AC
:1019E0008D2FE901042F182F69E472E0C7010E94CE
:1019F000E204D60114968D919C911597C817D907CA
:101A0000C8F58017910708F48C01D601ED91FC917F
:101A10001197E00FF11FB08010824D915C91BA01D7
:101A20006C0F7D1F6115710561F0FB0101900020B5
:101A3000E9F73197AF01461B570BC7010E94B80465
:101A400013C0F70180819181009711F00E94C81B9B
:101A5000D70111961C921E9215961C921E921497F5
:101A600013961C921E921297D601ED91FC91E00FF5
:101A7000F11FB082C701DF91CF911F910F91FF90AD
:101A8000EF90DF90CF90BF9008958AE899EAA6EC96
:101A9000BFE48093FC029093FD02A093FE02B093FA
:101AA000FF021092FB021092FA021092F9021092B9
:101AB000F5021092F6021092F7021092F8021092BC
:101AC000F4021092F30210922001E1E2F1E01082A0
:101AD000109225011092240180E49CE99093290141
:101AE0008093280181E4808383E28ABB8093730022
:101AF00008958AE899EAA6ECBFE48093EF029093F8
:101B0000F002A093F102B093F2021092EE02109252
:101B1000ED021092EC021092E8021092E90210928B
:101B2000EA021092EB021092E7021092E602109283
:101B3000A000E1EAF0E010821092A5001092A4004B
:101B400080E49CE99093A9008093A80081E48083BD
:101B500083E289BB809372000895CF92DF92EF9267
:101B6000FF928091030490910404A0910504B09128
:101B70000604892B8A2B8B2B11F480E04EC0D3D81E
:101B80006B017C018091070490910804A0910904E5
:101B9000B0910A04B701A601481B590B6A0B7B0BD5
:101BA0008091030490910404A0910504B09106046F
:101BB000481759076A077B0700F32091E1038091DA
:101BC000EB039091EC03A091ED03B091EE0322237F
:101BD00021F00196A11DB11D03C00197A109B10912
:101BE0008093EB039093EC03A093ED03B093EE038B
:101BF0004091EB035091EC036091ED037091EE0383
:101C00008FED93E00E94F103C0920704D092080484
:101C1000E0920904F0920A0481E0FF90EF90DF90D7
:101C2000CF9008954091EF035091F0036091F1033C
:101C30007091F2038091EB039091EC03A091ED037E
:101C4000B091EE03481759076A077B0761F08417C4
:101C50009507A607B70724F481E08093E10302C04B
:101C60001092E1037ACF80E008958F929F92AF9215
:101C7000BF92CF92DF92EF92FF920F931F93CF9379
:101C8000DF938B01D82FC92F2091F3033091F403F8
:101C90004091F5035091F6030E945B18882309F4E4
:101CA00060C0C090F703D090F803E090F903F09083
:101CB000FA0346015701B7FAB094B7F8B094A501FA
:101CC0009401B8018D2F9C2F0E945B1887FD0DC0D9
:101CD000A7019601B8018D2F9C2F0E948E1A18160D
:101CE00034F06801ED2EFC2E02C07501640120E085
:101CF00030E0A901C701B6010E945B18811109C03B
:101D00001092030410920404109205041092060429
:101D100020C0A701960160E074E284E799E40E9484
:101D2000F5199F770E94621A60930304709304046C
:101D30008093050490930604C1E020E030E0A901FF
:101D4000C701B6010E948E1A18160CF0C0E0C093AD
:101D5000E103C092F303D092F403E092F503F09212
:101D6000F603DF91CF911F910F91FF90EF90DF90DD
:101D7000CF90BF90AF909F908F900895CF92DF92B9
:101D8000EF92FF926B017C0120E030E0A9010E94FC
:101D90005B1887FF04C0F7FAF094F7F8F094A701F6
:101DA00096016091F7037091F8038091F903909187
:101DB000FA030E945B18882309F456C0C092F70307
:101DC000D092F803E092F903F092FA03A70196018A
:101DD00060E074E284E799E40E94F51960931F04BF
:101DE0007093200480932104909322048091130423
:101DF00090911404A0911504B091160418161906B8
:101E00001A061B068CF56091F3037091F403809120
:101E1000F5039091F6039B01AC010E94C0186B0181
:101E20007C016091FB037091FC038091FD03909114
:101E3000FE039B01AC010E9491199B01AC01C701FB
:101E4000B6010E94F5190E945D1A60931304709305
:101E5000140480931504909316048FED93E0FF9083
:101E6000EF90DF90CF90AFCBFF90EF90DF90CF90CF
:101E700008950F931F930E94B80660930803709310
:101E8000090380930A0390930B03E0910003F09100
:101E900001030284F385E02D80E093E0199597FF1C
:101EA0001FC00E94B80600910803109109032091F9
:101EB0000A0330910B03DC01CB01801B910BA20BB9
:101EC000B30B009104031091050320910603309198
:101ED000070380179107A207B307B8F28FEF9FEFB0
:101EE0001F910F910895009769F0FC010190002067
:101EF000E9F73197AF01481B590BBC0180E093E033
:101F00000C946A0180E090E008958F929F92AF92C6
:101F1000BF920F931F93CF93DF93CDB7DEB7A197F7
:101F20000FB6F894DEBF0FBECDBF19A2423008F441
:101F30004AE08E010F5D1F4F842E912CA12CB12CF5
:101F4000A50194010E94ED1AE62FB901CA010150C2
:101F50001109EA3014F4E05D01C0E95CD801EC93AA
:101F6000232B242B252B61F7C801BDDFA1960FB6CB
:101F7000F894DEBF0FBECDBFDF91CF911F910F91BF
:101F8000BF90AF909F908F9008954F925F926F9205
:101F90007F928F929F92AF92BF92CF92DF92EF92F9
:101FA000FF926B017C01B42E9B01AC010E94D41AFC
:101FB000882319F088E792E027C026013701E894CA
:101FC00077F82FEF3FEF4FE75FE7C301B2010E94C1
:101FD000D41A81110DC02FEF3FEF4FE75FE7C30128
:101FE000B2010E945B1818161CF48CE792E00CC03A
:101FF0002FEF3FEF4FE75FE4C701B6010E948E1A53
:1020000018167CF480E892E0FF90EF90DF90CF907C
:10201000BF90AF909F908F907F906F905F904F9008
:1020200062CF2FEF3FEF4FE75FECC701B6010E9491
:102030005B1887FDE7CF20E030E0A901C701B601BA
:102040000E945B1887FF11C0E0910003F09101032B
:102050000190F081E02D6DE280E093E019954C0154
:10206000F7FAF094F7F8F09402C0812C912CA12C8F
:1020700060E070E080E09FE3AB1441F020E030E0EE
:1020800040E251E40E94F519A394F6CF9B01AC0104
:10209000C701B6010E9491192B013C010E94621AEE
:1020A0006B017C010E945F189B01AC01C301B2016E
:1020B0000E9490192B013C014AE0C701B60125DFBF
:1020C0007C01E80CF91CBB2069F0E0910003F09161
:1020D00001030190F081E02D6EE280E093E019951C
:1020E000E80EF91EDB2CDD2011F120E030E040E2AB
:1020F00051E4C301B2010E94C0182B013C010E94AF
:10210000621A4B01A12CB12C4AE0C501B401FDDEDD
:10211000E80EF91EC501B401D2D79B01AC01C30181
:10212000B2010E9490192B013C01DA94DCCFC70167
:10213000FF90EF90DF90CF90BF90AF909F908F90E7
:102140007F906F905F904F900895CF93DF93C9ED8C
:10215000D3E02697888199810E94C81B83E0CD39FE
:10216000D807B9F78091D9039091DA03DF91CF9125
:102170000C94C81BCF93DF93CDB7DEB762970FB631
:10218000F894DEBF0FBECDBF789484B5826084BD65
:1021900084B5816084BD85B5826085BD85B581606B
:1021A00085BD80916E00816080936E0010928100E9
:1021B00080918100826080938100809181008160A4
:1021C0008093810080918000816080938000809165
:1021D000B10084608093B1008091B00081608093F1
:1021E000B000809191008260809391008091910075
:1021F0008160809391008091900081608093900035
:102200008091A10082608093A1008091A1008160F3
:102210008093A1008091A00081608093A0008091B4
:10222000210182608093210180912101816080934E
:1022300021018091200181608093200180917A00AA
:10224000846080937A0080917A00826080937A0023
:1022500080917A00816080937A0080917A00806812
:1022600080937A001092C100E0911003F091110365
:1022700082E08083E0910C03F0910D031082E091E5
:102280000E03F0910F0380E1808310921803E09118
:102290001403F091150386E08083E0911203F0911E
:1022A0001303808180618083E0911203F091130316
:1022B000808188608083E0911203F0911303808114
:1022C00080688083E0911203F091130380818F7DF9
:1022D000808382E390E0A0E0B0E0809304039093D9
:1022E0000503A0930603B093070303DCCEDB61E094
:1022F0008FE10E940D0660E08FE10E94550561E0CC
:102300008CE10E940D0660E08CE10E94550561E0C1
:102310008BE10E940D0660E08BE10E94550561E0B3
:1023200089E10E940D0660E089E10E94550560E0A8
:1023300086E30E940D060E9493064B015C014EE16C
:10234000C42ED12CE12CF12C0E949306DC01CB0190
:1023500088199909AA09BB09883E9340A105B105CE
:1023600058F021E0C21AD108E108F10838EE830ED6
:1023700033E0931EA11CB11CC114D104E104F1048B
:1023800019F790E4292E812C912C20E8A22E2FEB16
:10239000B22E8E010F5F1F4F36E0332E0E94B8061B
:1023A0006093E2027093E3028093E4029093E5026B
:1023B0008091E1028111D1DB8091E002811132DC58
:1023C0008091E2029091E302A091E402B091E502D3
:1023D0004091DC025091DD026091DE027091DF02DB
:1023E000841B950BA60BB70B883E9340A105B10546
:1023F0000CF465C18091E1028111AFDB8091E002B4
:10240000811110DC76DB8091EE02813069F0D8F327
:10241000823009F065C08092D0029092D102A092E1
:10242000D202B092D30254C06091E8027091E902E6
:102430008091EA029091EB02C090BE02D090BF0260
:10244000E090C002F090C1022091BA023091BB022C
:102450004091BC025091BD022D873E874F87588B1B
:102460002ED62B013C01C701B6012D853E854F8537
:102470005889621B730B840B950B21D69B01AC0111
:10248000C301B201B2D76B017C019B01AC0178D6CC
:102490002DE33AE047EB5FEB73D62B013C012CE5D3
:1024A0003FE846E553E4C701B6016AD69B01AC019B
:1024B000C301B20136D723E333E349E852E430D70E
:1024C0006093D0027093D1028093D2029093D30292
:1024D0008091E102811141DB8091E0028111A2DB58
:1024E000D4DA8091FB02813069F0D8F3823009F0B0
:1024F00065C08092CC029092CD02A092CE02B092A2
:10250000CF0254C06091F5027091F6028091F702FB
:102510009091F802C090C602D090C702E090C80225
:10252000F090C9022091C2023091C3024091C402CE
:102530005091C5022D873E874F87588BC0D52B0100
:102540003C01C701B6012D853E854F855889621B28
:10255000730B840B950BB3D59B01AC01C301B20186
:1025600044D76B017C019B01AC010AD62DE33AE014
:1025700047EB5FEB05D62B013C012CE53FE846E538
:1025800053E4C701B601FCD59B01AC01C301B20104
:10259000C8D623E333E349E852E4C2D66093CC02C1
:1025A0007093CD028093CE029093CF028091E1028E
:1025B0008111D3DA8091E002811134DB80917B00BC
:1025C000877F80937B0020927C0080917A008064DA
:1025D00080937A0080917A0086FDFCCF609178002C
:1025E0008091790070E0782B072E000C880B990BF6
:1025F00068D52AE038E240EA5BE3C2D56093D802AE
:102600007093D9028093DA029093DB0220E030E0ED
:1026100040E250E485D66093D4027093D502809353
:10262000D6029093D7028AE392E05DDC6091D002FB
:102630007091D1028091D2029091D30242E0A5DC48
:102640008EE392E050DC6091CC027091CD028091DB
:10265000CE029091CF0242E098DC83E492E043DC2A
:102660006091D4027091D5028091D6029091D702E8
:1026700042E08BDC87E492E036DC1092D0021092CC
:10268000D1021092D2021092D3021092CC02109278
:10269000CD021092CE021092CF028091E102811100
:1026A0005CDA8091E0028111BDDA0E94B806609385
:1026B000DC027093DD028093DE029093DF0280E003
:1026C00093E00E94CA01892B09F411C269E472E007
:1026D000C8010E94E204CDDB97FD1EC08A3091053F
:1026E000D9F08F831886ED80FE803FEFE31AF30A5E
:1026F000B701C8010E949104882369F329813A81B6
:102700008D819E81BE01695F7F4F820F931F0E9462
:10271000651DFE82ED82DFCFB80189ED93E00E9456
:10272000580489819A810E94C81B18861F821A86C4
:1027300019861C861B866091D9037091DA03611596
:10274000710541F04091DD035091DE03CE01079603
:102750000E94B80440E050E0E12CF12C4B845C84F2
:102760004415550598F46F8078846AE370E0C301DE
:10277000840F951F498B5A8B0E94511D49895A8994
:10278000009721F06C01C618D70803C0CC24CA9466
:10279000DC2CCA0101968C159D050CF59601BE0135
:1027A000695F7F4FC8010CD93E9CC0013F9C900DD2
:1027B000112483569C4F8017910719F0B8010E948D
:1027C000580489819A81E4D74FEFE41AF40A56E05D
:1027D000E516F1041CF5A6014F5F5F4FBFCFD7FE92
:1027E000BDCF86E0E816F104CCF49201BE01695F2A
:1027F0007F4FC801E5D83E9CC0013F9C900D11243D
:1028000083569C4F8017910719F0B8010E94580415
:1028100089819A81BDD79FEFE91AF90AF092CB021C
:10282000E092CA028F819885B3D76AE472E08DE99D
:1028300093E00E943904882309F1A2E0EA16F1042A
:10284000E9F481E08093E1021092E00289EA93E0EA
:10285000ACD894DA83EA93E0A8D86B017C0120E03D
:1028600030E0A90128D4882329F0B701A6018FED13
:1028700093E017D889EA93E098D8F7D96EE472E02C
:102880008DE993E00E943904882309F443C08091C4
:10289000CA029091CB02029709F03CC081E080937C
:1028A000E0021092E10283EA93E07FD867DA809138
:1028B000A9039091AA03009709F424C13BD2C090C8
:1028C000EB03D090EC03E090ED03F090EE03DC011D
:1028D000CB018C0D9D1DAE1DBF1DC090EF03D09090
:1028E000F003E090F103F090F203C816D906EA066F
:1028F000FB0661F08093EF039093F003A093F10344
:10290000B093F2038FED93E00E94E30A83EA93E031
:102910004CD8ABD962E572E08DE993E00E943904AE
:10292000882339F08091CA029091CB02029709F472
:10293000EDC066E572E08DE993E00E9439048823DA
:1029400099F18091CA029091CB02029769F583EACE
:1029500093E02BD86B017C0120E030E0A901ABD3E0
:102960008111E7C020E030E040E85FE320930002FF
:10297000309301024093020250930302C090000280
:10298000D0900102E0900202F090030220E030E0DB
:10299000A901C701B6018FD3882331F0B701A60181
:1029A0008FED93E00E94510C6AE572E08DE993E0AF
:1029B0000E943904882399F08091CA029091CB0239
:1029C000029769F46FE672E083EA93E00E943904AB
:1029D000882309F4B7C060E08FE10E94550560E6E6
:1029E00072E08DE993E00E943904882309F47FC0E6
:1029F0008091CA029091CB02029709F078C066E7F5
:102A000072E083EA93E00E943904882361F060E079
:102A10008CE10E94550560E08BE10E94550560E065
:102A200089E10E9455056DE672E083EA93E00E9419
:102A30003904882361F061E08CE10E94550560E073
:102A40008BE10E94550560E089E10E94550565E62D
:102A500072E083EA93E00E943904882361F060E029
:102A60008CE10E94550561E08BE10E94550560E014
:102A700089E10E94550567E672E083EA93E00E94CF
:102A80003904882361F061E08CE10E94550561E022
:102A90008BE10E94550560E089E10E94550569E6D9
:102AA00072E083EA93E00E943904882361F060E0D9
:102AB0008CE10E94550560E08BE10E94550561E0C4
:102AC00089E10E9455056CE672E083EA93E00E947A
:102AD0003904882361F061E08CE10E94550561E0D2
:102AE0008BE10E94550561E089E10E9455058091C6
:102AF000E102811132D88091E002811193D80E94C5
:102B000067024CCC60E070E0CB01D9CE83EA93E061
:102B10000E94D50C6B017C01609304027093050246
:102B2000809306029093070229D9C701B6019DD868
:102B300000CFC0920002D0920102E0920202F09215
:102B400003021CCF61E048CFCF93DF9310920303C1
:102B50001092020388EE93E0A0E0B0E080930403BB
:102B600090930503A0930603B093070382E192E0DC
:102B7000909301038093000385EC90E090930D0304
:102B800080930C0384EC90E090930F0380930E03EA
:102B900080EC90E0909311038093100381EC90E01F
:102BA000909313038093120382EC90E090931503AB
:102BB0008093140386EC90E09093170380931603A0
:102BC0001092190310921A0310921B0310921C0307
:102BD00084E292E09093E0038093DF0381E08093AE
:102BE000E2031092EB031092EC031092ED031092AB
:102BF000EE031092EF031092F0031092F103109283
:102C0000F2031092F3031092F4031092F503109262
:102C1000F60380E090E0A0E8BFE38093F703909391
:102C2000F803A093F903B093FA031092FB031092F8
:102C3000FC031092FD031092FE038093FF03909318
:102C40000004A0930104B0930204109203041092B4
:102C50000404109205041092060421E030E0309341
:102C60000C0420930B042FEF20930E041092070402
:102C7000109208041092090410920A042BE0209389
:102C8000E3032CE02093E40324E02093E50325E014
:102C90002093E60310920D04109213041092140472
:102CA0001092150410921604109217041092180432
:102CB0001092190410921A0410921B0410921C0412
:102CC00010921D0410921E0480931F049093200400
:102CD000A0932104B09322041092E1031092E70321
:102CE0001092E8031092E9031092EA038FED93E04B
:102CF0000E94490640E050E060E87FE38FED93E0FA
:102D00000E94510C69E472E089ED93E00E94E204B4
:102D1000CDE9D3E069E472E0CE010E94E204269698
:102D200083E0C93DD807B1F7DF91CF9108956627B9
:102D300077273BC01F93FC0199278827BC01E894A3
:102D400011911032E9F3193010F01E30C8F31B3224
:102D500049F01D3241F4689405C012D0610F711D15
:102D6000811D911D119110531A30B8F33EF49095C6
:102D70008095709561957F4F8F4F9F4F1F9108955C
:102D8000592F482F372F262F660F771F881F991F1F
:102D9000660F771F881F991F620F731F841F951F6F
:102DA000660F771F881F991F08956F927F928F92E9
:102DB0009F92AF92BF92CF92DF92EF92FF920F93CA
:102DC0001F93CF93DF93EC017B016115710519F01F
:102DD000DB018D939C938E010F5F1F4F7880872DB1
:102DE00090E049D1892B11F0E801F5CFBDE27B12CB
:102DF00005C00F5F1F4F7980C1E008C0EBE27E1273
:102E000004C08E010E5F1F4F7980C0E06801F1E0C1
:102E1000CF1AD10843E050E060E371E0C60133D13E
:102E2000892BE9F4680122E0C20ED11C45E050E094
:102E30006BE271E0C60127D1892B21F4680187E09C
:102E4000C80ED11CE114F10419F0D701CD92DC9227
:102E5000C111F9C060E070E080E89FE7FDC043E089
:102E600050E068E271E0C6010ED1892B51F4E11403
:102E7000F10409F4EDC00E5F1F4FF70111830083C9
:102E8000E7C0680160E070E0CB0100E010E0F6010F
:102E9000D0EDD70DDA3050F52C2F2260622E2C2F7A
:102EA0002870C2FF05C0211127C00F5F1F4F24C02B
:102EB000222311F001501109A5E0B0E09B01AC0103
:102EC00016D24B015C01880C991CAA1CBB1CC501C5
:102ED000B4016D0F711D811D911D6839A9E97A0733
:102EE0008A07A9E19A0740F0C66005C0DE3F51F4A9
:102EF000C3FD44C0C8606C2EBFEFCB1ADB0A7080E4
:102F0000C62DC5CF2D2F2F7D2531C1F540814D32E6
:102F100011F4C06106C04B3221F0319621E030E05F
:102F200006C03296D60111964C9122E030E0A0ED19
:102F3000A40FAA3018F0E21BF30B20C040E050E0D1
:102F40004038BCE05B075CF49A01220F331F220F6C
:102F5000331F420F531F440F551F4A0F511D319607
:102F6000DF0111972C91A0EDA20FAA3048F3C4FF06
:102F700003C0519541955109040F151FC1FF07C0AA
:102F8000E114F10421F03197D701ED93FC9397D030
:102F9000C370C33019F06B017C0106C06B017C016A
:102FA000F7FAF094F7F8F09420E030E0A901C701B7
:102FB000B60181D0882309F443C017FF06C01195DC
:102FC00001951109C7E4D1E002C0CFE5D1E05E016F
:102FD000B8E1AB1AB1084601BE2DAF2D90E2E92E43
:102FE000F12C0E151F057CF0FE01259135914591C0
:102FF0005491B4018B2F9A2FC3D04B01B82FA92F16
:103000000E191F09EECF2497F594E794CA15DB0536
:1030100041F76401EB2EFA2E8E2D880F8F2D881F1D
:103020008F3F41F020E030E0A901C701B60143D055
:10303000811106C082E290E09093240480932304DF
:10304000C701B60109C060E070E080E89FEF04C0EE
:1030500060E070E080EC9FE7DF91CF911F910F91CE
:10306000FF90EF90DF90CF90BF90AF909F908F90A8
:103070007F906F9008959111E6C0803219F08950C9
:103080008550D0F70895FB01DC014150504088F095
:103090008D9181341CF08B350CF4805E6591613428
:1030A0001CF06B350CF4605E861B611171F3990B9B
:1030B0000895881BFCCF40D008F481E00895E8947F
:1030C00009C097FB3EF490958095709561957F4F70
:1030D0008F4F9F4F9923A9F0F92F96E9BB2793951E
:1030E000F695879577956795B795F111F8CFFAF42E
:1030F000BB0F11F460FF1BC06F5F7F4F8F4F9F4F5F
:1031000016C0882311F096E911C0772321F09EE8BC
:10311000872F762F05C0662371F096E8862F70E022
:1031200060E02AF09A95660F771F881FDAF7880FFC
:103130009695879597F90895990F0008550FAA0B52
:10314000E0E8FEEF16161706E807F907C0F01216BA
:103150001306E407F50798F0621B730B840B950BBD
:1031600039F40A2661F0232B242B252B21F4089512
:103170000A2609F4A140A6958FEF811D811D0895AF
:103180000BD07BC06CD028F071D018F0952309F0DB
:103190005DC062C01124A5C081D0A0F3959FD1F37A
:1031A000950F50E0551F629FF001729FBB27F00DF5
:1031B000B11D639FAA27F00DB11DAA1F649F66274A
:1031C000B00DA11D661F829F2227B00DA11D621F99
:1031D000739FB00DA11D621F839FA00D611D221F53
:1031E000749F3327A00D611D231F849F600D211D37
:1031F000822F762F6A2F11249F5750408AF0E1F0DA
:1032000088234AF0EE0FFF1FBB1F661F771F881F22
:1032100091505040A9F79E3F510570F017C061C012
:103220005F3FECF3983EDCF3869577956795B7950D
:10323000F795E7959F5FC1F7FE2B880F911D969537
:10324000879597F9089599278827089597F99F6793
:1032500080E870E060E008959FEF80EC089500241E
:103260000A941616170618060906089500240A94EB
:1032700012161306140605060895092E0394000C71
:1032800011F4882352F0BB0F40F4BF2B11F460FF00
:1032900004C06F5F7F4F8F4F9F4F089557FD905829
:1032A000440F551F59F05F3F71F04795880F97FB0A
:1032B000991F61F09F3F79F08795089512161306C4
:1032C0001406551FF2CF4695F1DF08C016161706F3
:1032D0001806991FF1CF8695710561050894089528
:1032E000E894BB2766277727CB0197F9089509D083
:1032F000A59F900DB49F900DA49F800D911D11244A
:103300000895A29FB001B39FC001A39F700D811DBE
:103310001124911DB29F700D811D1124911D0895DE
:103320005058BB27AA270ED0A8CF99DF30F09EDFD8
:1033300020F031F49F3F11F41EF48ECF0EF4E0958F
:10334000E7FB84CFE92FAADF80F3BA176207730780
:103350008407950718F071F49EF5C2CF0EF4E0953E
:103360000B2EBA2FA02D0B01B90190010C01CA013F
:10337000A0011124FF27591B99F0593F50F4503EEA
:1033800068F11A16F040A22F232F342F4427585FDC
:10339000F3CF469537952795A795F0405395C9F7F4
:1033A0007EF41F16BA0B620B730B840BBAF09150AC
:1033B000A1F0FF0FBB1F661F771F881FC2F70EC04B
:1033C000BA0F621F731F841F48F48795779567951E
:1033D000B795F7959E3F08F0B3CF9395880F08F007
:1033E0009927EE0F9795879508950CD046CF3EDF2D
:1033F00040F035DF30F021F45F3F19F027CF511155
:1034000070CF2ACF4BDF98F39923C9F35523B1F33B
:10341000951B550BBB27AA2762177307840738F043
:103420009F5F5F4F220F331F441FAA1FA9F333D0A2
:103430000E2E3AF0E0E830D091505040E695001C56
:10344000CAF729D0FE2F27D0660F771F881FBB1F12
:10345000261737074807AB07B0E809F0BB0B802DEC
:10346000BF01FF2793585F4F2AF09E3F510568F038
:10347000EDCE37CF5F3FECF3983EDCF38695779542
:103480006795B795F7959F5FC9F7880F911D96953A
:10349000879597F90895E1E0660F771F881FBB1F96
:1034A000621773078407BA0720F0621B730B840B43
:1034B000BA0BEE1F88F7E095089504D06894B11117
:1034C00010CF0895F3DE88F09F5790F0B92F992719
:1034D000B751A0F0D1F0660F771F881F991F1AF01F
:1034E000BA95C9F712C0B13081F0FADEB1E00895A3
:1034F000F7CE672F782F8827B85F39F0B93FCCF324
:10350000869577956795B395D9F73EF49095809514
:10351000709561957F4F8F4F9F4F08950DDE08F492
:103520008FEF089511F40EF497CE42C0BFDED0F3B2
:103530009923D9F3CEF39F57550B87FF47D000242B
:10354000A0E640EA900180585695979528F4805C53
:10355000660F771F881F20F026173707480730F4BB
:10356000621B730B840B202931294A2BA6951794D3
:103570000794202531254A2758F7660F771F881FA3
:1035800020F026173707480730F4620B730B840BC3
:10359000200D311D411DA09581F7B901842F91584F
:1035A000880F969587950895C7DD880B990B089528
:1035B0009F3F31F0915020F4879577956795B795A7
:1035C000880F911D9695879597F9089591505040D1
:1035D000660F771F881FD2F70895A1E21A2EAA1B43
:1035E000BB1BFD010DC0AA1FBB1FEE1FFF1FA217B3
:1035F000B307E407F50720F0A21BB30BE40BF50BB0
:10360000661F771F881F991F1A9469F76095709538
:10361000809590959B01AC01BD01CF010895052EC9
:1036200097FB16F400940FD057FD05D0D6DF07FCAA
:1036300002D046F408C050954095309521953F4FF3
:103640004F4F5F4F089590958095709561957F4F8E
:103650008F4F9F4F0895EE0FFF1F881F8BBF07905E
:10366000F691E02D1994CF93DF938230910510F4F9
:1036700082E090E0E0912704F091280420E030E01F
:10368000C0E0D0E0309711F14081518148175907CF
:10369000C0F04817590761F482819381209719F08F
:1036A0009B838A832BC0909328048093270426C091
:1036B0002115310519F04217530718F49A01BE017C
:1036C000DF01EF010280F381E02DDCCF2115310510
:1036D00009F1281B390B2430310590F412968D9195
:1036E0009C9113976115710521F0FB0193838283EF
:1036F00004C09093280480932704FD01329644C0AF
:10370000FD01E20FF31F81939193225031092D9314
:103710003C933AC02091250430912604232B41F498
:1037200020910A0230910B02309326042093250445
:1037300020910802309109022115310541F42DB77D
:103740003EB740910C0250910D02241B350BE091C5
:103750002504F0912604E217F307A0F42E1B3F0B7B
:103760002817390778F0AC014E5F5F4F24173507F3
:1037700048F04E0F5F1F5093260440932504819319
:10378000919302C0E0E0F0E0CF01DF91CF91089586
:103790000F931F93CF93DF93009709F48CC0FC0124
:1037A0003297138212820091270410912804011588
:1037B000110581F420813181820F931F209125040E
:1037C000309126042817390779F5F0932604E09301
:1037D000250471C0D80140E050E0AE17BF0750F497
:1037E00012962D913C911397AD012115310509F1E8
:1037F000D901F3CF9D01DA01338322836081718186
:10380000860F971F8217930769F4EC01288139818D
:10381000260F371F2E5F3F4F318320838A819B8184
:1038200093838283452B29F4F0932804E0932704A3
:1038300042C01396FC93EE931297ED014991599172
:103840009E01240F351FE217F30771F480819181E7
:10385000840F951F029611969C938E93828193817B
:1038600013969C938E931297E0E0F0E0D8011296A5
:103870008D919C911397009719F0F8018C01F6CF68
:103880008D919C9198012E5F3F4F820F931F209145
:103890002504309126042817390769F4309729F454
:1038A000109228041092270402C0138212821093EF
:1038B000260400932504DF91CF911F910F91089565
:1038C0006F927F928F929F92AF92BF92CF92DF9230
:1038D000EF92FF920F931F93CF93DF93EC0100972A
:1038E00081F4CB01DF91CF911F910F91FF90EF9069
:1038F000DF90CF90BF90AF909F908F907F906F9010
:10390000B2CEFC01E60FF71F9C0122503109E217ED
:10391000F30708F4A8C0D9010D911C91119706175F
:103920001707A8F00530110508F49BC0C8010497DB
:103930008617970708F495C002501109061B170B4C
:10394000019311936D937C93CF0122DF8AC05B01B9
:10395000A01AB10A4C01800E911EA0912704B091CB
:10396000280440E050E0E12CF12C109709F44AC003
:10397000A815B905D1F56D907C901197630182E08F
:10398000C80ED11CCA14DB0480F1A3014A195B09DB
:103990006A0182E0C80ED11C1296BC901297139651
:1039A000AC91B5E0CB16D10440F0B282A383518331
:1039B0004083D9016D937C930AC00E5F1F4FC301F2
:1039C000800F911FF90191838083EB2DFA2FE11471
:1039D000F10431F0D7011396FC93EE93129741C096
:1039E000F0932804E09327043CC08D919C9111979B
:1039F0004817590708F4AC017D0112960D90BC914F
:103A0000A02DB3CF809125049091260488159905A7
:103A1000E1F446175707C8F4809108029091090213
:103A2000009741F48DB79EB740910C0250910D0262
:103A3000841B950BE817F907B0F4F0932604E09384
:103A40002504F901718360830CC0CB010CDE7C017D
:103A5000009749F0A801BE011BD0CE0199DEC70135
:103A600004C0CE0102C080E090E0DF91CF911F91B1
:103A70000F91FF90EF90DF90CF90BF90AF909F900D
:103A80008F907F906F90089581E090E0F89424C02B
:103A9000FB01DC0102C001900D9241505040D8F76B
:103AA0000895FC018191861721F08823D9F7992781
:103AB00008953197CF010895FB01DC018D910190AC
:103AC00080190110D9F3990B0895FB01DC010190D5
:103AD0000D920020E1F7089511E0C6E3D1E000E087
:103AE00005C0802FFE01B7DD2196011DC733D10728
:0A3AF00080E00807B1F7F894FFCF5B
:103AFA0000803B4500009643000029048000000036
:103B0A00000000026A0199014602CA01A801BC012B
:103B1A000000000077064906D205F103DB03A30380
:103B2A0082034E032D03D7029F0274313A002C748C
:103B3A00323A002C703A000D0A00726F7400706FEE
:103B4A00730073706400616363006D6F746F720059
:103B5A006D6F646500340038003136003332006519
:103B6A006E61626C650031006E616E00696E66009E
:043B7A006F766600FC
:00000001FF
