:1000000036C1000065C1000063C1000061C100008D
:100010005FC100005DC100005BC1000059C100006C
:1000200057C1000055C1000053C1000051C100007C
:100030004FC100004DC100004BC1000049C100008C
:10004000C0C700000C94FE0843C1000041C100007D
:100050000C9411093DC100003BC10000DAC400004E
:1000600037C100000C94F20C0C94C80C31C1000094
:100070002FC100002DC100002BC1000029C10000CC
:1000800027C1000025C1000023C1000021C10000DC
:100090001FC100001DC100001BC1000019C10000EC
:1000A00017C1000047C6000062C7000011C1000070
:1000B0000FC100006FC70000F6C4000011C60000A9
:1000C00007C1000005C100001EC6000001C10000FC
:1000D000FFC00000FDC00000FBC00000F9C0000030
:1000E000F7C000000E0211020002040208024802DA
:1000F000150219021F02230227022D0231023502C6
:1001000048023B023F024302750279027D028102EE
:10011000850289028D02FA03010408040F04160403
:100120002E041D042E0424044E414E494E495459B8
:10013000494E46CDCCCC3D0AD7233C17B7D13877B2
:10014000CC2B329595E6241FB14F0A0000204100C8
:1001500000C84200401C4620BCBE4CCA1B0E5AAE12
:10016000C59D7400002100240027002A002D0030C6
:1001700000330001010000040107010A0100002210
:1001800000250028002B002E003100340002010061
:1001900000050108010B010505050507050808080C
:1001A00008020202020A0A08080404040401010108
:1001B0000101010101030303030303030304070710
:1001C000070C0C0C0C0C0C0C0C02020202060606AE
:1001D00006060606060B0B0B0B0B0B0B0B01021096
:1001E0002020080810204010204080020102010851
:1001F0000402010102040810204080804020100801
:100200000402018004020180402010080402010859
:1002100004020101020408102040800102040810B9
:1002200020408000000A0B02090C0D0E0807030491
:1002300001000000000000000000000000000000BD
:10024000000000000000000000000000000000129C
:10025000111000000000000000000000000000007D
:1002600000000000000000000000D314A3101124BF
:100270001FBECFEFD1E2DEBFCDBF00E00CBF24E058
:10028000A6E6B2E001C01D92AB30B207E1F712E082
:10029000A0E0B2E0E8E5F9E300E00BBF02C00790A0
:1002A0000D92A636B107D9F711E0C6E3D1E000E020
:1002B00006C021970109802FFE010E945A1AC533FA
:1002C000D10780E00807A9F70E94B8100C949B1C86
:1002D00097CEFC01538D448D252F30E0842F90E084
:1002E000821B930B541710F0CF9608950197089531
:1002F000FC01918D828D981761F0828DDF01A80F2E
:10030000B11D5D968C91928D9F5F9F73928F90E04F
:1003100008958FEF9FEF0895FC01918D828D9817BE
:1003200031F0828DE80FF11D858D90E008958FEFFB
:100330009FEF0895FC01918D228D892F90E0805CC4
:100340009F4F821B91098F739927089580E090E059
:10035000892B21F00E94480B811125C080E090E09C
:10036000892B41F080E090E0892B21F00E94000071
:1003700081111CC080E090E0892B41F080E090E08A
:10038000892B21F00E940000811113C080E090E0D1
:10039000892BA1F080E090E0892B81F00E94000081
:1003A00081110AC008950E940000D8CF0E94000069
:1003B000E1CF0E940000EACF0C9400000895362F90
:1003C00090E0FC01ED5DFD4F4491FC01E352FE4FD6
:1003D0002491FC01E956FE4F9491992309F46BC0D6
:1003E000442309F455C050E0FA013197E231F10598
:1003F00008F04EC08827EE58FF4F8F4F0C945A1AC2
:10040000809180008F7707C0809180008F7D03C02E
:1004100080918000877F809380003AC084B58F7779
:1004200002C084B58F7D84BD33C08091B0008F77CA
:1004300003C08091B0008F7D8093B00029C080916F
:1004400090008F7707C0809190008F7D03C08091CE
:100450009000877F809390001BC08091A0008F77D1
:1004600007C08091A0008F7D03C08091A000877F8E
:100470008093A0000DC0809120018F7707C08091EC
:1004800020018F7D03C080912001877F8093200110
:10049000E92FF0E0EE0FFF1FE358FE4FA591B49156
:1004A0008FB7F894EC91311103C020952E2301C031
:1004B0002E2B2C938FBF0895CF93DF93DC014770D1
:1004C000552766277727FA013197CD91DC9111974F
:1004D000E730F10530F48827EC57FF4F8F4F0C942D
:1004E0005A1AEC81FD8161E01BC0EC81FD8165E061
:1004F00017C0EC81FD8164E013C0EC81FD8166E0F2
:100500000FC0EC81FD8162E00BC0EC81FD816AE0EF
:1005100007C0EC81FD8168E003C0EC81FD8169E0EA
:10052000CD01DF91CF911994CF93DF93EC01CB01F3
:10053000BA0126E030E040E050E00E943E1A62300E
:1005400071058105910559F18CF4611571058105DD
:100550009105F1F06130710581059105C1F5E881E2
:10056000F9810480F581E02D65E02DC064307105CE
:100570008105910511F1D4F0653071058105910572
:1005800031F5E881F9810480F581E02D66E01BC03A
:10059000E881F9810480F581E02D64E014C0E881F0
:1005A000F9810480F581E02D61E00DC0E881F981D9
:1005B0000480F581E02D63E006C0E881F9810480C4
:1005C000F581E02D62E0CE01DF91CF911994DF91AA
:1005D000CF9108954370552766277727DC01ED9169
:1005E000FC910480F581E02D4230510561057105D3
:1005F00071F0433051056105710559F041305105E5
:100600006105710511F065E005C066E003C06AE0B0
:1006100001C069E01994CF93DF93EC01CB01BA01DB
:1006200023E030E040E050E00E943E1A6130710566
:100630008105910581F0623071058105910591F088
:10064000672B682B692BC1F4E881F9810480F5815F
:10065000E02D64E00DC0E881F9810480F581E02D92
:1006600061E006C0E881F9810480F581E02D62E057
:10067000CE01DF91CF911994DF91CF91089543700E
:10068000552766277727DC01ED91FC910480F581E1
:10069000E02D423051056105710571F0433051057F
:1006A0006105710559F0413051056105710511F081
:1006B00062E005C063E003C061E001C060E019943E
:1006C000CF93DF93EC01E881F9810480F581E02D7F
:1006D0008A81811102C060E001C062E0CE011995FB
:1006E000E881F9810480F581E02D8A81811102C0C1
:1006F00061E001C063E0CE0119958CA59DA5823013
:10070000910538F0880F991F880F991F0597019759
:10071000F1F7E881F9810480F581E02D8A8181116A
:1007200002C060E001C062E0CE01DF91CF91199478
:10073000CF93DF93EC0120E030E0A9016C897D8943
:100740008E899F890E94BD1918161CF4E8A9F9A981
:1007500002C0EAA9FBA9DF91CF911994CF92DF9251
:10076000EF92FF920F931F93CF93DF93FC012381AE
:10077000243041F0283031F0233031F0263021F0A0
:1007800012E003C014E001C013E0EC012896E12C54
:10079000F12CC62ED12C01E0C6010E2C02C095957D
:1007A00087950A94E2F7688180FD6027FE013497FF
:1007B000808105DEFFEFEF1AFF0A2196E11660F354
:1007C000DF91CF911F910F91FF90EF90DF90CF902D
:1007D00008950F931F93DC0113960C91139710E06B
:1007E00009301105D8F5F8018827E557FF4F8F4FDD
:1007F0000C945A1AED91FC9111970084F185E02D2B
:1008000029C0ED91FC9111970284F385E02D22C05F
:10081000ED91FC9111970484F585E02D1BC0ED91BD
:10082000FC9111970684F785E02D14C0ED91FC91A1
:1008300011970088F189E02D0DC0ED91FC91119781
:100840000288F389E02D06C0ED91FC911197048890
:10085000F589E02DCD011F910F9119941F910F91F2
:100860000895FC01848DDF01A80FB11DA35ABF4F6D
:100870002C91848D90E001968F739927848FA6899F
:10088000B7892C93A089B1898C9180648C93938DC6
:10089000848D981306C00288F389E02D80818F7DB6
:1008A00080830895CF93DF9390E0FC01E352FE4FE5
:1008B0002491FC01E956FE4F8491882361F190E078
:1008C000880F991FFC01ED59FE4FC591D491FC0191
:1008D000E358FE4FA591B491611109C09FB7F894F8
:1008E0008881209582238883EC912E230BC062306F
:1008F00061F49FB7F8943881822F80958323888391
:10090000EC912E2B2C939FBF06C08FB7F894E881F3
:100910002E2B28838FBFDF91CF910895CF93DF9344
:10092000FC012381222329F1EC0161E08481BADFFB
:1009300061E08D81B7DF8B81843011F0883031F434
:1009400061E08E81AFDF61E08F8106C0833011F0FE
:10095000863019F461E08E81A5DF8FA58F3F49F0C5
:1009600061E0A0DF6EA581E068278FA5DF91CF91C0
:1009700026CDDF91CF910895CF93DF93FC012381A2
:10098000222399F0EC010190F081E02D0480F581A3
:10099000E02D60E019958FA58F3F39F061E082DF8F
:1009A0006EA58FA5DF91CF910ACDDF91CF910895EC
:1009B0003FB7F8948091980290919902A0919A0281
:1009C000B0919B0226B5A89B05C02F3F19F0019658
:1009D000A11DB11D3FBFBA2FA92F982F8827820FC5
:1009E000911DA11DB11DBC01CD0142E0660F771F15
:1009F000881F991F4A95D1F708952FB7F8946091F1
:100A000094027091950280919602909197022FBF67
:100A100008951F920F920FB60F9211242F933F93B8
:100A20008F939F93AF93BF9380919402909195027F
:100A3000A0919602B09197023091930223E0230F88
:100A40002D3720F40196A11DB11D05C026E8230F06
:100A50000296A11DB11D209393028093940290935E
:100A60009502A0939602B09397028091980290917C
:100A70009902A0919A02B0919B020196A11DB11D0D
:100A80008093980290939902A0939A02B0939B024C
:100A9000BF91AF919F918F913F912F910F900FBE7A
:100AA0000F901F9018951F920F920FB60F9211245E
:100AB0000BB60F92CF92DF92EF92FF920F931F939C
:100AC0002F933F934F935F936F937F938F939F9356
:100AD000AF93BF93EF93FF932091260130912701AD
:100AE000C9013091210120E4232720932101D59AC7
:100AF0002091D5023091D602D901D09B05C08F3FFD
:100B00000FE7900708F4C1C02091210126FFADC076
:100B10002091DB023091DC022115310509F44FC030
:100B20002130310509F054C000918F0210919002DC
:100B300020919102309192024091D7025091D802B7
:100B40006091D9027091DA02480F591F6A1F7B1F0A
:100B5000401B510B620B730B4093D7025093D8028A
:100B60006093D9027093DA02C090DE02D090DF0267
:100B7000E090E002F090E1024091A4025091A502C1
:100B80006091A6027091A7028C019D01041B150BB8
:100B9000260B370BC901B8010E948E179B01AC01CF
:100BA000C701B6010E9424190E94911960938B021B
:100BB00070938C0280938D0290938E024CC0809330
:100BC000A4029093A502A093A602B093A70243C0EB
:100BD00000918F0210919002209191023091920227
:100BE0004091D7025091D8026091D9027091DA02F7
:100BF000480F591F6A1F7B1F401B510B620B730B61
:100C00004093D7025093D8026093D9027093DA02CE
:100C10002091DB023091DC0227703327232BD9F49B
:100C20000091A4021091A5022091A6023091A70282
:100C300040918B0250918C0260918D0270918E02D6
:100C40006C017D01C01AD10AE20AF30AC416D50666
:100C5000E606F706E8F48091DB029091DC0201964B
:100C60009093DC028093DB0222C09C01205C33461F
:100C7000309329012093280180938F029093900252
:100C8000A0939102B093920212C0D90111963CCF69
:100C90008093A8029093A902A093AA02B093AB02FA
:100CA0001092730083E28ABB81E08093DD02FF91A2
:100CB000EF91BF91AF919F918F917F916F915F91D4
:100CC0004F913F912F911F910F91FF90EF90DF90E7
:100CD000CF900F900BBE0F900FBE0F901F901895E6
:100CE0001F920F920FB60F9211248F9310927300E0
:100CF00083E28ABB82E08093DD028F910F900FBE6A
:100D00000F901F9018951F920F920FB60F921124FB
:100D10008F939F938091D5029091D60201969093E4
:100D2000D6028093D5029F918F910F900FBE0F90A6
:100D30001F9018951F920F920FB60F9211240BB6A9
:100D40000F92CF92DF92EF92FF920F931F932F9308
:100D50003F934F935F936F937F938F939F93AF9343
:100D6000BF93EF93FF932091A6003091A700C90194
:100D70003091A10020E423272093A100CD9A209157
:100D8000C8023091C902D901C89B05C08F3F0FE747
:100D9000900708F4C1C02091A10026FFADC02091AA
:100DA000CE023091CF022115310509F44FC0213018
:100DB000310509F054C000918702109188022091FA
:100DC000890230918A024091CA025091CB0260910F
:100DD000CC027091CD02480F591F6A1F7B1F401B28
:100DE000510B620B730B4093CA025093CB0260937A
:100DF000CC027093CD02C090D102D090D202E0908C
:100E0000D302F090D40240919C0250919D026091D7
:100E10009E0270919F028C019D01041B150B260BF5
:100E2000370BC901B8010E948E179B01AC01C701A5
:100E3000B6010E9424190E94911960938302709355
:100E4000840280938502909386024CC080939C021A
:100E500090939D02A0939E02B0939F0243C0009185
:100E60008702109188022091890230918A02409174
:100E7000CA025091CB026091CC027091CD02480F12
:100E8000591F6A1F7B1F401B510B620B730B409352
:100E9000CA025093CB026093CC027093CD02209192
:100EA000CE023091CF0227703327232BD9F4009143
:100EB0009C0210919D0220919E0230919F024091D0
:100EC00083025091840260918502709186026C01C8
:100ED0007D01C01AD10AE20AF30AC416D506E60655
:100EE000F706E8F48091CE029091CF02019690939C
:100EF000CF028093CE0222C09C01205C3346309307
:100F0000A9002093A8008093870290938802A09361
:100F10008902B0938A0212C0D90111963CCF809306
:100F2000A0029093A102A093A202B093A3021092F8
:100F3000720083E289BB81E08093D002FF91EF9140
:100F4000BF91AF919F918F917F916F915F914F91E1
:100F50003F912F911F910F91FF90EF90DF90CF90D5
:100F60000F900BBE0F900FBE0F901F9018951F9201
:100F70000F920FB60F9211248F931092720083E29A
:100F800086BB82E08093D0028F910F900FBE0F90AE
:100F90001F9018951F920F920FB60F9211248F93E6
:100FA0009F938091C8029091C90201969093C902C3
:100FB0008093C8029F918F910F900FBE0F901F904A
:100FC00018951F920F920FB60F9211240BB60F9225
:100FD000CF92DF92EF92FF920F931F932F933F9345
:100FE0004F935F936F937F938F939F93AF93BF9331
:100FF000EF93FF932091860030918700C9013091D3
:10100000810020E4232720938100B59A209181025A
:1010100030918202D901B09B05C08F3F0FE7900746
:1010200008F4C1C02091810026FFADC020917F024D
:10103000309180022115310509F44FC0213031056E
:1010400009F054C000917702109178022091790242
:1010500030917A024091730250917402609175024E
:1010600070917602480F591F6A1F7B1F401B510B5E
:10107000620B730B4093730250937402609375027A
:1010800070937602C0906F02D0907002E09071026F
:10109000F090720240917B0250917C0260917D023F
:1010A00070917E028C019D01041B150B260B370BE2
:1010B000C901B8010E948E179B01AC01C701B6019E
:1010C0000E9424190E94911960936B0270936C0224
:1010D00080936D0290936E024CC080937B0290933C
:1010E0007C02A0937D02B0937E0243C00091770200
:1010F000109178022091790230917A024091730226
:10110000509174026091750270917602480F591FD8
:101110006A1F7B1F401B510B620B730B40937302C2
:1011200050937402609375027093760220917F024F
:101130003091800227703327232BD9F400917B0252
:1011400010917C0220917D0230917E0240916B02D1
:1011500050916C0260916D0270916E026C017D0184
:10116000C01AD10AE20AF30AC416D506E606F70643
:10117000E8F480917F029091800201969093800222
:1011800080937F0222C09C01205C3346309389000B
:10119000209388008093770290937802A09379023D
:1011A000B0937A0212C0D90111963CCF80936702A6
:1011B00090936802A0936902B0936A0210926F0044
:1011C00083E286BB81E080936602FF91EF91BF913D
:1011D000AF919F918F917F916F915F914F913F91CF
:1011E0002F911F910F91FF90EF90DF90CF900F9074
:1011F0000BBE0F900FBE0F901F9018951F920F926D
:101200000FB60F9211248F9310926F0083E286BB6A
:1012100082E0809366028F910F900FBE0F901F9017
:1012200018951F920F920FB60F9211248F939F93D0
:101230008091810290918202019690938202809324
:1012400081029F918F910F900FBE0F901F90189564
:101250002F923F924F925F926F927F928F929F92C6
:10126000AF92BF92CF92DF92EF92FF920F931F93B4
:10127000CF93DF9300D01F92CDB7DEB71C01FC01E6
:10128000C088D188E288F38884859585A685B7854E
:10129000C81AD90AEA0AFB0A648975898689978976
:1012A0009B01AC010E94EF174B015C01F101648DC1
:1012B000758D868D978D9B01AC010E94C0189B0196
:1012C000AC01C501B4010E9424190E948C19C114FB
:1012D000D104E104F104A1F46230710581059105A6
:1012E0000CF07CC0F10114A215A216A217A2148A58
:1012F000158A168A178A14AA15AA16AA17AAFFC051
:10130000F10104A915A926A937A91C141D041E045E
:101310001F0404F510161106120613064CF46C1582
:101320007D058E059F055CF52281211157C027C0E0
:10133000011511052105310509F450C06C157D0515
:101340008E059F050CF04AC0F1018281882309F4C3
:1013500045C039C01016110612061306FCF400270A
:10136000112798010C191D092E093F0960177107F3
:101370008207930724F4F1012281222379F19B0152
:10138000AC0188279927DC01821B930BA40BB50BBA
:10139000F10184AB95ABA6ABB7AB20C0011511052D
:1013A00021053105D9F08824992454018C189D0811
:1013B000AE08BF08681579058A059B057CF4F10124
:1013C000828181110BC030952095109501951F4F9A
:1013D0002F4F3F4F04AB15AB26AB37ABF10184A8C1
:1013E00095A8A6A8B7A881149104A104B10491F40A
:1013F00080AD91ADA2ADB3AD84AF95AFA6AFB7AFA1
:1014000081E01C141D041E041F040CF080E0F10197
:10141000828341C0F101C4ACD5ACE6ACF7ACA70106
:101420009601C701B6010E94C0182B013C01C501FD
:10143000B4010E94901720E030E040E850E40E94A0
:10144000EF1720E030E040E85FE30E94C0189B0106
:10145000AC01C301B2010E9424199B01AC01C70178
:10146000B6010E94BF187B018C01F101E05CFF4FC7
:1014700060807180C280D3809301A6010E94BD1953
:10148000181614F073018601A701B801F10144AFE9
:1014900055AF66AF77AFFFEF8F1A9F0AAF0ABF0A4B
:1014A000F10184AA95AAA6AAB7AA24AD35AD46AD86
:1014B00057ADCA01B90129833A834B835C830E94EB
:1014C0009119F10164A375A386A397A329813A8199
:1014D0004B815C8160E074E284E799E40E94241906
:1014E000F101648B758B868B978B2281211107C04C
:1014F000DC01CB01B058848B958BA68BB78B0F90FA
:101500000F900F900F90DF91CF911F910F91FF904F
:10151000EF90DF90CF90BF90AF909F908F907F9093
:101520006F905F904F903F902F9008954F925F92F1
:101530006F927F928F929F92AF92BF92CF92DF92E3
:10154000EF92FF92CF93DF93EC016A017B0120E0E1
:1015500030E0A901C701B6010E948A1787FF04C0C5
:10156000F7FAF094F7F8F0948C8C9D8CAE8CBF8CCD
:10157000A7019601C501B4010E948A17882309F4C6
:1015800048C06CA97DA98EA99FA90E9490172B0124
:101590003C01A7019601C501B4010E9424199B01D9
:1015A000AC01C301B2010E94EF170E948C196CAB11
:1015B0007DAB8EAB9FABA701960160E070E080E051
:1015C00090E40E9424190E94C51926E53EE04DE2F0
:1015D0005FE30E94EF1720E034E244E759E40E9401
:1015E000EF1768AF79AF8AAF9BAFCC8EDD8EEE8EF2
:1015F000FF8ECE01DF91CF91FF90EF90DF90CF90E3
:10160000BF90AF909F908F907F906F905F904F9022
:101610001FCEDF91CF91FF90EF90DF90CF90BF90E2
:10162000AF909F908F907F906F905F904F900895B4
:101630000895CF92DF92EF92FF920F931F93CF9373
:10164000DF936C017A018B01C0E0D0E0CE15DF059D
:1016500089F0D8016D918D01D601ED91FC91019039
:10166000F081E02DC6011995892B11F47E0102C08D
:101670002196ECCFC701DF91CF911F910F91FF9081
:10168000EF90DF90CF900895089580E090E0089566
:1016900082EE92E00E949A0121E0892B09F420E079
:1016A000822F08950F931F93CF93DF938C01EB014B
:1016B000FC01808191810097B1F068817981611589
:1016C000710579F0428153812C813D814217530786
:1016D00040F00E94941C8C819D81F8019583848345
:1016E00013C00E94F71A88819981F8019183808341
:1016F0008A819B81938382838C819D81958384835E
:10170000198218821B821A821D821C82DF91CF915E
:101710001F910F9108950E94731CFC01808191819B
:10172000009711F00C94C61560E070E0CB010895AD
:101730000F931F93CF93DF93EC01888199810097DA
:1017400029F02A813B812617370788F48B016F5FC8
:101750007F4F0E948F1B009761F0998388831B83C2
:101760000A832C813D81232B11F4FC01108281E03E
:1017700001C080E0DF91CF911F910F910895EF920A
:10178000FF920F931F93CF93DF93EC017B018A01AC
:10179000BA01CEDF2881398181110DC021153105B3
:1017A00019F0C9010E94F71A198218821D821C8241
:1017B0001B821A8206C01D830C83B701C9010E94D7
:1017C000941CCE01DF91CF911F910F91FF90EF906C
:1017D0000895EF92FF920F931F93CF93DF93EC0145
:1017E00081E0888F9B8D8C8D981305C0E889F989DD
:1017F000808185FD23C0F62E0B8D10E00F5F1F4FFB
:101800000F731127E02E8C8DE8120BC00FB607FC6A
:10181000FACFE889F989808185FFF5CFCE0121D8FB
:10182000F2CF8B8DFE01E80FF11DE35AFF4FF082DE
:101830000B8FEA89FB898081806207C0EE89FF896E
:101840006083E889F98980818064808381E090E009
:10185000DF91CF911F910F91FF90EF900895CF935B
:10186000DF93EC01888D8823C9F0EA89FB898081A8
:1018700085FD05C0A889B9898C9186FD0FC00FB67A
:1018800007FCF5CF808185FFF2CFA889B9898C91BB
:1018900085FFEDCFCE010E943104E7CFDF91CF91DC
:1018A0000895FC0111821082138212821582148223
:1018B0006115710549F0FB0101900020E9F73197AE
:1018C000AF01461B570B5BCF0895BF92CF92DF92BB
:1018D000EF92FF920F931F93CF93DF937C016B01E5
:1018E000EA0189012417350720F48D2FE901042F1F
:1018F000182F69E472E0C701D4DFD60114968D91E8
:101900009C911597C817D907C0F58017910708F45F
:101910008C01D601ED91FC911197E00FF11FB08081
:1019200010824D915C91BA016C0F7D1F611571059C
:1019300059F0FB0101900020E9F73197AF01461BF8
:10194000570BC7011CDF13C0F701808191810097FD
:1019500011F00E94F71AD70111961C921E9215964B
:101960001C921E92149713961C921E921297D601E7
:10197000ED91FC91E00FF11FB082C701DF91CF9193
:101980001F910F91FF90EF90DF90CF90BF9008953F
:101990001F920F920FB60F9211240BB60F922F9336
:1019A0003F934F935F936F937F938F939F93AF93E7
:1019B000BF93EF93FF9382EE92E00E943104FF9178
:1019C000EF91BF91AF919F918F917F916F915F91B7
:1019D0004F913F912F910F900BBE0F900FBE0F9024
:1019E0001F9018951F920F920FB60F9211240BB6ED
:1019F0000F922F938F939F93EF93FF93E091F202B7
:101A0000F091F3028081E091F802F091F90282FDF9
:101A100012C090818091FB028F5F8F732091FC0236
:101A2000821751F0E091FB02F0E0EE51FD4F958FEF
:101A30008093FB0201C08081FF91EF919F918F9174
:101A40002F910F900BBE0F900FBE0F901F90189507
:101A50008AE899EAA6ECBFE48093DE029093DF0265
:101A6000A093E002B093E1021092DD021092DC023A
:101A70001092DB021092D7021092D8021092D90273
:101A80001092DA021092D6021092D5021092200122
:101A9000E1E2F1E01082109225011092240180E42D
:101AA0009CE9909329018093280181E4808383E25B
:101AB0008ABB8093730008958AE899EAA6ECBFE494
:101AC0008093D1029093D202A093D302B093D40218
:101AD0001092D0021092CF021092CE021092CA023F
:101AE0001092CB021092CC021092CD021092C90239
:101AF0001092C8021092A000E1EAF0E01082109269
:101B0000A5001092A40080E49CE99093A900809322
:101B1000A80081E4808383E289BB809372000895EA
:101B2000CF92DF92EF92FF928091E5039091E603CE
:101B3000A091E703B091E803892B8A2B8B2B11F43A
:101B400080E04FC00E94D8046B017C018091E903C2
:101B50009091EA03A091EB03B091EC03B701A601C9
:101B6000481B590B6A0B7B0B8091E5039091E603B0
:101B7000A091E703B091E803481759076A077B076C
:101B8000F8F22091C3038091CD039091CE03A091F0
:101B9000CF03B091D003222321F00196A11DB11DE6
:101BA00003C00197A109B1098093CD039093CE039F
:101BB000A093CF03B093D0034091CD035091CE03B7
:101BC0006091CF037091D00381EC93E00E94E90310
:101BD000C092E903D092EA03E092EB03F092EC03A7
:101BE00081E0FF90EF90DF90CF9008954091D10376
:101BF0005091D2036091D3037091D4038091CD03AF
:101C00009091CE03A091CF03B091D003481759070C
:101C10006A077B0761F084179507A607B70724F4C6
:101C200081E08093C30302C01092C30379CF80E0A8
:101C30000895FC018091830390918403892B21F402
:101C400021E0309749F413C080917F039091800385
:101C5000309731F421E0FC018081882341F006C0F7
:101C6000BF010E948B1C21E0892B09F020E0822F0C
:101C700008958F929F92AF92BF92CF92DF92EF9290
:101C8000FF920F931F93CF93DF938B01D82FC92F10
:101C90002091D5033091D6034091D7035091D803BA
:101CA0000E948A17882309F460C0C090D903D0909D
:101CB000DA03E090DB03F090DC0346015701B7FA4A
:101CC000B094B7F8B094A5019401B8018D2F9C2F62
:101CD0000E948A1787FD0DC0A7019601B8018D2FBC
:101CE0009C2F0E94BD19181634F06801ED2EFC2EB1
:101CF00002C07501640120E030E0A901C701B6010E
:101D00000E948A17811109C01092E5031092E60320
:101D10001092E7031092E80320C0A701960160E04B
:101D200074E284E799E40E9424199F770E94911934
:101D30006093E5037093E6038093E7039093E803D1
:101D4000C1E020E030E0A901C701B6010E94BD1941
:101D500018160CF0C0E0C093C303C092D503D09214
:101D6000D603E092D703F092D803DF91CF911F9171
:101D70000F91FF90EF90DF90CF90BF90AF909F902A
:101D80008F900895CF92DF92EF92FF926B017C01CA
:101D900020E030E0A9010E948A1787FF04C0F7FA0B
:101DA000F094F7F8F094A70196016091D90370912F
:101DB000DA038091DB039091DC030E948A17882369
:101DC00009F456C0C092D903D092DA03E092DB0343
:101DD000F092DC03A701960160E074E284E799E4E5
:101DE0000E942419609301047093020480930304F9
:101DF000909304048091F5039091F603A091F7036A
:101E0000B091F803181619061A061B068CF5609196
:101E1000D5037091D6038091D7039091D8039B018D
:101E2000AC010E94EF176B017C016091DD037091A2
:101E3000DE038091DF039091E0039B01AC010E94DF
:101E4000C0189B01AC01C701B6010E9424190E9471
:101E50008C196093F5037093F6038093F7039093C6
:101E6000F80381EC93E0FF90EF90DF90CF90F0C902
:101E7000FF90EF90DF90CF9008950F931F930E94F3
:101E8000FD046093EA027093EB028093EC0290935E
:101E9000ED02E091E202F091E3020284F385E02D8D
:101EA00082EE92E0199597FF1FC00E94FD040091F9
:101EB000EA021091EB022091EC023091ED02DC017C
:101EC000CB01801B910BA20BB30B0091E60210918A
:101ED000E7022091E8023091E90280179107A207FA
:101EE000B307B8F28FEF9FEF1F910F9108950097FE
:101EF00061F0FC0101900020E9F73197AF01481B28
:101F0000590BBC0182EE92E094CB80E090E0089502
:101F10008F929F92AF92BF920F931F93CF93DF93B5
:101F2000CDB7DEB7A1970FB6F894DEBF0FBECDBF19
:101F300019A2423008F44AE08E010F5D1F4F842E33
:101F4000912CA12CB12CA50194010E941C1AE62F02
:101F5000B901CA0101501109EA3014F4E05D01C071
:101F6000E95CD801EC93232B242B252B61F7C801C6
:101F7000BEDFA1960FB6F894DEBF0FBECDBFDF91D6
:101F8000CF911F910F91BF90AF909F908F90089528
:101F90004F925F926F927F928F929F92AF92BF9279
:101FA000CF92DF92EF92FF926B017C01B42E9B01E6
:101FB000AC010E94031A882319F08AE592E026C03A
:101FC00026013701E89477F82FEF3FEF4FE75FE7FF
:101FD000C301B2010E94031A81110CC02FEF3FEF21
:101FE0004FE75FE7C301B20195D718161CF48EE5E1
:101FF00092E00CC02FEF3FEF4FE75FE4C701B6015F
:102000000E94BD1918167CF482E692E0FF90EF90D2
:10201000DF90CF90BF90AF909F908F907F906F9008
:102020005F904F9064CF2FEF3FEF4FE75FECC7011A
:10203000B60170D787FDE8CF20E030E0A901C701E5
:10204000B60168D787FF11C0E091E202F091E30288
:102050000190F081E02D6DE282EE92E019954C0145
:10206000F7FAF094F7F8F09402C0812C912CA12C8F
:1020700060E070E080E09FE3AB1441F020E030E0EE
:1020800040E251E40E942419A394F6CF9B01AC01D5
:10209000C701B6010E94C0182B013C010E94911992
:1020A0006B017C013BD79B01AC01C301B2010E94D3
:1020B000BF182B013C014AE0C701B60129DF7C01B2
:1020C000E80CF91CBB2069F0E091E202F091E30218
:1020D0000190F081E02D6EE282EE92E01995E80E1B
:1020E000F91EDB2CDD2009F120E030E040E251E474
:1020F000C301B20174D72B013C010E9491194B011D
:10210000A12CB12C4AE0C501B40102DFE80EF91E92
:10211000C501B40103D79B01AC01C301B2010E9408
:10212000BF182B013C01DA94DDCFC701FF90EF907F
:10213000DF90CF90BF90AF909F908F907F906F90E7
:102140005F904F900895CF93DF93CBEBD3E026972A
:10215000888199810E94F71A83E0CF37D807B9F7B1
:102160008091BB039091BC03DF91CF910C94F71A3F
:10217000CF93DF93CDB7DEB762970FB6F894DEBF8B
:102180000FBECDBF789484B5826084BD84B5816074
:1021900084BD85B5826085BD85B5816085BD809132
:1021A0006E00816080936E001092810080918100AA
:1021B00082608093810080918100816080938100A2
:1021C000809180008160809380008091B100846064
:1021D0008093B1008091B00081608093B0008091C5
:1021E0009100826080939100809191008160809342
:1021F0009100809190008160809390008091A10077
:1022000082608093A1008091A10081608093A100F1
:102210008091A00081608093A00080912101826064
:10222000809321018091210181608093210180911F
:10223000200181608093200180917A0084608093E6
:102240007A0080917A00826080937A0080917A008F
:10225000816080937A0080917A00806880937A0010
:102260001092C100E091F202F091F30282E08083CB
:10227000E091EE02F091EF021082E091F002F09115
:10228000F10280E180831092FA02E091F602F0916F
:10229000F70286E08083E091F402F091F5028081FC
:1022A00080618083E091F402F091F5028081886082
:1022B0008083E091F402F091F50280818068808350
:1022C000E091F402F091F50280818F7D808382E3BA
:1022D00090E0A0E0B0E08093E6029093E702A09344
:1022E000E802B093E902E8DBB3DB60E086E30E943A
:1022F00052040E94D8044B015C013EE1C32ED12C54
:10230000E12CF12C0E94D804DC01CB018819990939
:10231000AA09BB09883E9340A105B10558F021E008
:10232000C21AD108E108F10838EE830E33E0931E9B
:10233000A11CB11CC114D104E104F10419F7812CD2
:10234000912C90E8A92E9FEBB92E8E010F5F1F4FA5
:1023500026E0222E332433940E94FD046093C402AD
:102360007093C5028093C6029093C7028091C30206
:102370008111D6DB8091C202811138DC8091C402C8
:102380009091C502A091C602B091C7024091BE02D1
:102390005091BF026091C0027091C102841B950BE5
:1023A000A60BB70B883E9340A105B1050CF466C19E
:1023B0008091C3028111B4DB8091C202811116DCCD
:1023C0007BDB8091D002813069F0D8F3823009F054
:1023D00065C08092B2029092B302A092B402B09211
:1023E000B50254C06091CA027091CB028091CC02B8
:1023F0009091CD02C090A002D090A102E090A202E4
:10240000F090A30220919C0230919D0240919E0287
:1024100050919F022D873E874F87588B7FD52B0188
:102420003C01C701B6012D853E854F855889621B49
:10243000730B840B950B72D59B01AC01C301B201E8
:1024400003D76B017C019B01AC01C9D52DE33AE0B8
:1024500047EB5FEBC4D52B013C012CE53FE846E59B
:1024600053E4C701B601BBD59B01AC01C301B20166
:1024700087D623E333E349E852E481D66093B2027E
:102480007093B3028093B4029093B5028091C3021B
:10249000811146DB8091C2028111A8DBD9DA8091DB
:1024A000DD02813069F0D8F3823009F065C0809296
:1024B000AE029092AF02A092B002B092B10254C0AC
:1024C0006091D7027091D8028091D9029091DA027E
:1024D000C090A802D090A902E090AA02F090AB02AE
:1024E0002091A4023091A5024091A6025091A7022A
:1024F0002D873E874F87588B11D52B013C01C70193
:10250000B6012D853E854F855889621B730B840B60
:10251000950B04D59B01AC01C301B20195D66B01AB
:102520007C019B01AC015BD52DE33AE047EB5FEB0F
:1025300056D52B013C012CE53FE846E553E4C701A5
:10254000B6014DD59B01AC01C301B20119D623E3FD
:1025500033E349E852E413D66093AE027093AF02BE
:102560008093B0029093B1028091C3028111D8DAB6
:102570008091C20281113ADB80917B00877F80933A
:102580007B0030E430937C0080917A0080648093FB
:102590007A0080917A0086FDFCCF6091780080916E
:1025A000790070E0782B072E000C880B990BB8D4BB
:1025B0002AE038E240EA5BE312D56093BA027093F6
:1025C000BB028093BC029093BD0220E030E040E269
:1025D00050E4D5D56093B6027093B7028093B802E9
:1025E0009093B9028AE392E082DC6091B20270912A
:1025F000B3028091B4029091B50242E0C9DC8EE34F
:1026000092E075DC6091AE027091AF028091B002F1
:102610009091B10242E0BCDC83E492E068DC60911E
:10262000B6027091B7028091B8029091B90242E06F
:10263000AFDC87E492E05BDC1092B2021092B3024E
:102640001092B4021092B5021092AE021092AF0234
:102650001092B0021092B1028091C302811160DA2F
:102660008091C2028111C2DA0E94FD046093BE0211
:102670007093BF028093C0029093C10282EE92E0F9
:102680000E949A01892B09F463C169E472E0C801D0
:1026900008D9F3DB97FD1DC08A309105D1F08F83F7
:1026A0001886ED80FE804FEFE41AF40AB701C801E6
:1026B0003FD8882371F329813A818D819E81BE01A3
:1026C000695F7F4F820F931F0E94941CFE82ED82F0
:1026D000E0CFB8018BEB93E00E94520B89819A8185
:1026E00086D718861F821A8619861C861B866091DB
:1026F000BB037091BC036115710539F04091BF03B4
:102700005091C003CE0107963AD840E050E0E12C4A
:10271000F12C4B845C844415550598F46F807884C3
:102720006AE370E0C301840F951F498B5A8B0E94A6
:10273000801C49895A89009721F06C01C618D70876
:1027400003C0CC24CA94DC2CCA0101968C159D05CB
:102750000CF59601BE01695F7F4FC801B6D82E9C6B
:10276000C0012F9C900D112481589C4F8017910718
:1027700019F0B8010E94520B89819A8138D75FEF16
:10278000E51AF50A86E0E816F1041CF5A6014F5F8C
:102790005F4FBFCFD7FEBDCF96E0E916F104CCF472
:1027A0009201BE01695F7F4FC8018FD82E9CC00186
:1027B0002F9C900D112481589C4F8017910719F080
:1027C000B8010E94520B89819A8111D7AFEFEA1AA2
:1027D000FA0AF092AD02E092AC028F81988507D799
:1027E0008AE492E026DA882321F1B2E0EB16F104C4
:1027F00001F53092C3021092C2028BE893E00E946E
:102800008D0BC0DA85E893E00E948D0B6B017C0193
:1028100020E030E0A9017ED3882331F0B701A60182
:1028200081EC93E00E94960A8BE893E00E948D0B66
:1028300020DA8EE492E0FDD9882309F444C0809127
:10284000AC029091AD02029709F03DC03092C202F5
:102850001092C30285E893E00E948D0B93DA809179
:102860008B0390918C03009709F47DC092D1C090A6
:10287000CD03D090CE03E090CF03F090D003DC01E5
:10288000CB018C0D9D1DAE1DBF1DC090D103D090FE
:10289000D203E090D303F090D403C816D906EA0619
:1028A000FB0661F08093D1039093D203A093D303EE
:1028B000B093D40381EC93E00E94280985E893E06B
:1028C0000E948D0BD6D982E592E0B3D9882339F0E6
:1028D0008091AC029091AD02029709F448C086E560
:1028E00092E0A7D98823A1F18091AC029091AD022A
:1028F000029771F585E893E00E948D0B6B017C01D6
:1029000020E030E0A90106D3811144C020E030E08E
:1029100040E85FE3209300023093010240930202FB
:1029200050930302C0900002D0900102E090020296
:10293000F090030220E030E0A901C701B601EAD21D
:10294000882331F0B701A60181EC93E00E94960A3A
:102950008091C3028111E4D88091C202811146D9CD
:102960000E94A601F9CC60E070E0CB0180CF85E841
:1029700093E00E948D0B6B017C01609304027093C5
:1029800005028093060290930702FCD9C701B601A5
:1029900070D9A5CFC0920002D0920102E09202024B
:1029A000F0920302BFCFCF93DF931092E502109213
:1029B000E40288EE93E0A0E0B0E08093E60290931A
:1029C000E702A093E802B093E90282E192E09093DB
:1029D000E3028093E20285EC90E09093EF02809313
:1029E000EE0284EC90E09093F1028093F00280EC90
:1029F00090E09093F3028093F20281EC90E0909348
:102A0000F5028093F40282EC90E09093F7028093B9
:102A1000F60286EC90E09093F9028093F80210920F
:102A2000FB021092FC021092FD021092FE0284E260
:102A300092E09093C2038093C10381E08093C4032A
:102A40001092CD031092CE031092CF031092D003B8
:102A50001092D1031092D2031092D3031092D40398
:102A60001092D5031092D6031092D7031092D80378
:102A700080E090E0A0E8BFE38093D9039093DA036D
:102A8000A093DB03B093DC031092DD031092DE030E
:102A90001092DF031092E0038093E1039093E2032E
:102AA000A093E303B093E4031092E5031092E603CE
:102AB0001092E7031092E80321E030E03093EE0338
:102AC0002093ED032FEF2093F0031092E90310926F
:102AD000EA031092EB031092EC032BE02093C50362
:102AE0002CE02093C60324E02093C70325E0209325
:102AF000C8031092EF031092F5031092F6031092A0
:102B0000F7031092F8031092F9031092FA0310924F
:102B1000FB031092FC031092FD031092FE0310922F
:102B2000FF03109200048093010490930204A09389
:102B30000304B09304041092C3031092C9031092CB
:102B4000CA031092CB031092CC0381EC93E00E9455
:102B50008E0440E050E060E87FE381EC93E00E9467
:102B6000960A69E472E08BEB93E00E94510CCFE788
:102B7000D3E069E472E0CE010E94510C269683E016
:102B8000CB3BD807B1F7DF91CF9108956627772720
:102B90003BC01F93FC0199278827BC01E894119141
:102BA0001032E9F3193010F01E30C8F31B3249F02F
:102BB0001D3241F4689405C012D0610F711D811D52
:102BC000911D119110531A30B8F33EF490958095F1
:102BD000709561957F4F8F4F9F4F1F910895592F8B
:102BE000482F372F262F660F771F881F991F660FD4
:102BF000771F881F991F620F731F841F951F660F11
:102C0000771F881F991F08956F927F928F929F92CE
:102C1000AF92BF92CF92DF92EF92FF920F931F93EA
:102C2000CF93DF93EC017B016115710519F0DB0196
:102C30008D939C938E010F5F1F4F7880872D90E0BE
:102C400049D1892B11F0E801F5CFBDE27B1205C017
:102C50000F5F1F4F7980C1E008C0EBE27E1204C015
:102C60008E010E5F1F4F7980C0E06801F1E0CF1A3E
:102C7000D10843E050E060E371E0C60133D1892B15
:102C8000E9F4680122E0C20ED11C45E050E06BE29D
:102C900071E0C60127D1892B21F4680187E0C80EB5
:102CA000D11CE114F10419F0D701CD92DC92C111CD
:102CB000F9C060E070E080E89FE7FDC043E050E0CD
:102CC00068E271E0C6010ED1892B51F4E114F104E0
:102CD00009F4EDC00E5F1F4FF70111830083E7C0B9
:102CE000680160E070E0CB0100E010E0F601D0ED9B
:102CF000D70DDA3050F52C2F2260622E2C2F287041
:102D0000C2FF05C0211127C00F5F1F4F24C022231F
:102D100011F001501109A5E0B0E09B01AC0116D201
:102D20004B015C01880C991CAA1CBB1CC501B40199
:102D30006D0F711D811D911D6839A9E97A078A07F8
:102D4000A9E19A0740F0C66005C0DE3F51F4C3FD1B
:102D500044C0C8606C2EBFEFCB1ADB0A7080C62D52
:102D6000C5CF2D2F2F7D2531C1F540814D3211F476
:102D7000C06106C04B3221F0319621E030E006C040
:102D80003296D60111964C9122E030E0A0EDA40FCE
:102D9000AA3018F0E21BF30B20C040E050E04038AE
:102DA000BCE05B075CF49A01220F331F220F331F34
:102DB000420F531F440F551F4A0F511D3196DF011B
:102DC00011972C91A0EDA20FAA3048F3C4FF03C0C5
:102DD000519541955109040F151FC1FF07C0E1141A
:102DE000F10421F03197D701ED93FC9397D0C37094
:102DF000C33019F06B017C0106C06B017C01F7FA4E
:102E0000F094F7F8F09420E030E0A901C701B60192
:102E100081D0882309F443C017FF06C0119501959E
:102E20001109C7E4D1E002C0CFE5D1E05E01B8E10D
:102E3000AB1AB1084601BE2DAF2D90E2E92EF12C60
:102E40000E151F057CF0FE01259135914591549199
:102E5000B4018B2F9A2FC3D04B01B82FA92F0E1975
:102E60001F09EECF2497F594E794CA15DB0541F7C7
:102E70006401EB2EFA2E8E2D880F8F2D881F8F3F29
:102E800041F020E030E0A901C701B60143D0811133
:102E900006C082E290E09093060480930504C70187
:102EA000B60109C060E070E080E89FEF04C060E018
:102EB00070E080EC9FE7DF91CF911F910F91FF9021
:102EC000EF90DF90CF90BF90AF909F908F907F90CA
:102ED0006F9008959111E6C0803219F089508550A5
:102EE000D0F70895FB01DC014150504088F08D91EE
:102EF00081341CF08B350CF4805E659161341CF0DC
:102F00006B350CF4605E861B611171F3990B0895AB
:102F1000881BFCCF40D008F481E00895E89409C0F4
:102F200097FB3EF490958095709561957F4F8F4FFC
:102F30009F4F9923A9F0F92F96E9BB279395F69512
:102F4000879577956795B795F111F8CFFAF4BB0F90
:102F500011F460FF1BC06F5F7F4F8F4F9F4F16C0F4
:102F6000882311F096E911C0772321F09EE8872F7E
:102F7000762F05C0662371F096E8862F70E060E03A
:102F80002AF09A95660F771F881FDAF7880F9695B3
:102F9000879597F90895990F0008550FAA0BE0E857
:102FA000FEEF16161706E807F907C0F0121613060B
:102FB000E407F50798F0621B730B840B950B39F44B
:102FC0000A2661F0232B242B252B21F408950A26B1
:102FD00009F4A140A6958FEF811D811D08950BD0A6
:102FE0007BC06CD028F071D018F0952309F05DC03B
:102FF00062C01124A5C081D0A0F3959FD1F3950F95
:1030000050E0551F629FF001729FBB27F00DB11D6C
:10301000639FAA27F00DB11DAA1F649F6627B00DFC
:10302000A11D661F829F2227B00DA11D621F739FE5
:10303000B00DA11D621F839FA00D611D221F749FF3
:103040003327A00D611D231F849F600D211D822F3A
:10305000762F6A2F11249F5750408AF0E1F0882381
:103060004AF0EE0FFF1FBB1F661F771F881F91508E
:103070005040A9F79E3F510570F017C061C05F3FF7
:10308000ECF3983EDCF3869577956795B795F795C1
:10309000E7959F5FC1F7FE2B880F911D9695879549
:1030A00097F9089599278827089597F99F6780E8E9
:1030B00070E060E008959FEF80EC089500240A948A
:1030C0001616170618060906089500240A94121603
:1030D0001306140605060895092E0394000C11F436
:1030E000882352F0BB0F40F4BF2B11F460FF04C0E3
:1030F0006F5F7F4F8F4F9F4F089557FD9058440F3C
:10310000551F59F05F3F71F04795880F97FB991F46
:1031100061F09F3F79F08795089512161306140603
:10312000551FF2CF4695F1DF08C016161706180690
:10313000991FF1CF86957105610508940895E8946B
:10314000BB2766277727CB0197F9089509D0A59F5C
:10315000900DB49F900DA49F800D911D1124089592
:10316000A29FB001B39FC001A39F700D811D1124C8
:10317000911DB29F700D811D1124911D089550580D
:10318000BB27AA270ED0A8CF99DF30F09EDF20F012
:1031900031F49F3F11F41EF48ECF0EF4E095E7FB5F
:1031A00084CFE92FAADF80F3BA1762077307840779
:1031B000950718F071F49EF5C2CF0EF4E0950B2E32
:1031C000BA2FA02D0B01B90190010C01CA01A00179
:1031D0001124FF27591B99F0593F50F4503E68F1D4
:1031E0001A16F040A22F232F342F4427585FF3CF15
:1031F000469537952795A795F0405395C9F77EF4E6
:103200001F16BA0B620B730B840BBAF09150A1F02E
:10321000FF0FBB1F661F771F881FC2F70EC0BA0FB4
:10322000621F731F841F48F4879577956795B7953C
:10323000F7959E3F08F0B3CF9395880F08F0992734
:10324000EE0F9795879508950CD046CF3EDF40F05E
:1032500035DF30F021F45F3F19F027CF511170CFE7
:103260002ACF4BDF98F39923C9F35523B1F3951B6C
:10327000550BBB27AA2762177307840738F09F5F97
:103280005F4F220F331F441FAA1FA9F333D00E2E06
:103290003AF0E0E830D091505040E695001CCAF773
:1032A00029D0FE2F27D0660F771F881FBB1F261738
:1032B00037074807AB07B0E809F0BB0B802DBF010B
:1032C000FF2793585F4F2AF09E3F510568F0EDCEDF
:1032D00037CF5F3FECF3983EDCF3869577956795A3
:1032E000B795F7959F5FC9F7880F911D96958795BC
:1032F00097F90895E1E0660F771F881FBB1F6217DB
:1033000073078407BA0720F0621B730B840BBA0B98
:10331000EE1F88F7E095089504D06894B11110CF9E
:103320000895F3DE88F09F5790F0B92F9927B75191
:10333000A0F0D1F0660F771F881F991F1AF0BA9579
:10334000C9F712C0B13081F0FADEB1E00895F7CECE
:10335000672F782F8827B85F39F0B93FCCF386956F
:1033600077956795B395D9F73EF4909580957095CC
:1033700061957F4F8F4F9F4F08950DDE08F48FEFBB
:10338000089511F40EF497CE42C0BFDED0F3992316
:10339000D9F3CEF39F57550B87FF47D00024A0E603
:1033A00040EA900180585695979528F4805C660F06
:1033B000771F881F20F026173707480730F4621B55
:1033C000730B840B202931294A2BA6951794079457
:1033D000202531254A2758F7660F771F881F20F0D0
:1033E00026173707480730F4620B730B840B200D48
:1033F000311D411DA09581F7B901842F9158880F87
:10340000969587950895C7DD880B990B08959F3F82
:1034100031F0915020F4879577956795B795880F8F
:10342000911D9695879597F9089591505040660F94
:10343000771F881FD2F70895A1E21A2EAA1BBB1B83
:10344000FD010DC0AA1FBB1FEE1FFF1FA217B30770
:10345000E407F50720F0A21BB30BE40BF50B661F86
:10346000771F881F991F1A9469F76095709580954A
:1034700090959B01AC01BD01CF010895052E97FBEE
:1034800016F400940FD057FD05D0D6DF07FC02D00C
:1034900046F408C050954095309521953F4F4F4FC9
:1034A0005F4F089590958095709561957F4F8F4FF0
:1034B0009F4F0895EE0FFF1F881F8BBF0790F69157
:1034C000E02D1994CF93DF938230910510F482E0C0
:1034D00090E0E0910904F0910A0420E030E0C0E0BF
:1034E000D0E0309711F14081518148175907C0F061
:1034F0004817590761F482819381209719F09B83C3
:103500008A832BC090930A048093090426C0211556
:10351000310519F04217530718F49A01BE01DF0173
:10352000EF010280F381E02DDCCF2115310509F197
:10353000281B390B2430310590F412968D919C9103
:1035400013976115710521F0FB019383828304C0F9
:1035500090930A0480930904FD01329644C0FD0152
:10356000E20FF31F81939193225031092D933C93E5
:103570003AC02091070430910804232B41F4209194
:103580000A0230910B023093080420930704209123
:103590000802309109022115310541F42DB73EB7DB
:1035A00040910C0250910D02241B350BE091070451
:1035B000F0910804E217F307A0F42E1B3F0B281725
:1035C000390778F0AC014E5F5F4F2417350748F09C
:1035D0004E0F5F1F5093080440930704819391930B
:1035E00002C0E0E0F0E0CF01DF91CF9108950F93AA
:1035F0001F93CF93DF93009709F48CC0FC0132979F
:10360000138212820091090410910A040115110518
:1036100081F420813181820F931F20910704309122
:1036200008042817390779F5F0930804E093070494
:1036300071C0D80140E050E0AE17BF0750F41296B9
:103640002D913C911397AD012115310509F1D90157
:10365000F3CF9D01DA013383228360817181860F6C
:10366000971F8217930769F4EC0128813981260F8F
:10367000371F2E5F3F4F318320838A819B81938345
:103680008283452B29F4F0930A04E093090442C095
:103690001396FC93EE931297ED01499159919E0177
:1036A000240F351FE217F30771F480819181840F95
:1036B000951F029611969C938E9382819381139607
:1036C0009C938E931297E0E0F0E0D80112968D91D2
:1036D0009C911397009719F0F8018C01F6CF8D910A
:1036E0009C9198012E5F3F4F820F931F20910704FA
:1036F000309108042817390769F4309729F410929B
:103700000A041092090402C0138212821093080462
:1037100000930704DF91CF911F910F9108956F924D
:103720007F928F929F92AF92BF92CF92DF92EF9251
:10373000FF920F931F93CF93DF93EC01009781F4D7
:10374000CB01DF91CF911F910F91FF90EF90DF9010
:10375000CF90BF90AF909F908F907F906F90B2CEA0
:10376000FC01E60FF71F9C0122503109E217F30715
:1037700008F4A8C0D9010D911C91119706171707DD
:10378000A8F00530110508F49BC0C80104978617FE
:10379000970708F495C002501109061B170B0193F7
:1037A00011936D937C93CF0122DF8AC05B01A01A35
:1037B000B10A4C01800E911EA0910904B0910A0437
:1037C00040E050E0E12CF12C109709F44AC0A81514
:1037D000B905D1F56D907C901197630182E0C80E18
:1037E000D11CCA14DB0480F1A3014A195B096A01E8
:1037F00082E0C80ED11C1296BC9012971396AC9121
:10380000B5E0CB16D10440F0B282A383518340834C
:10381000D9016D937C930AC00E5F1F4FC301800FC7
:10382000911FF90191838083EB2DFA2FE114F104AC
:1038300031F0D7011396FC93EE93129741C0F093A9
:103840000A04E09309043CC08D919C91119748179C
:10385000590708F4AC017D0112960D90BC91A02D82
:10386000B3CF809107049091080488159905E1F47D
:1038700046175707C8F480910802909109020097F3
:1038800041F48DB79EB740910C0250910D02841BFC
:10389000950BE817F907B0F4F0930804E0930704D8
:1038A000F901718360830CC0CB010CDE7C010097B1
:1038B00049F0A801BE011BD0CE0199DEC70104C0AA
:1038C000CE0102C080E090E0DF91CF911F910F9177
:1038D000FF90EF90DF90CF90BF90AF909F908F9030
:1038E0007F906F90089581E090E0F89424C0FB01F0
:1038F000DC0102C001900D9241505040D8F708956C
:10390000FC018191861721F08823D9F79927089522
:103910003197CF010895FB01DC018D910190801951
:103920000110D9F3990B0895FB01DC0101900D9270
:103930000020E1F7089511E0C6E3D1E000E005C002
:10394000802FFE01B7DD2196011DC733D10780E02E
:083950000807B1F7F894FFCF5E
:1039580000803B450000964300000B0480000000F7
:103968000000E90B190B69012F0C9A0178018C01F1
:1039780000000000BC048E04AE03E9039803600352
:103988003F030B03EA0294025C0274313A002C7480
:10399800323A002C703A000D0A00726F7400706F92
:1039A800730073706400616363006E616E00696E1A
:0639B80066006F76660058
:00000001FF
